{
  "_format": "hh-sol-artifact-1",
  "contractName": "MyNFT",
  "sourceName": "contracts/NFT.sol",
  "abi": [
    {
      "inputs": [
        {
          "internalType": "string",
          "name": "_name",
          "type": "string"
        },
        {
          "internalType": "string",
          "name": "_symbol",
          "type": "string"
        }
      ],
      "stateMutability": "nonpayable",
      "type": "constructor"
    },
    {
      "anonymous": false,
      "inputs": [
        {
          "indexed": true,
          "internalType": "address",
          "name": "owner",
          "type": "address"
        },
        {
          "indexed": true,
          "internalType": "address",
          "name": "approved",
          "type": "address"
        },
        {
          "indexed": true,
          "internalType": "uint256",
          "name": "tokenId",
          "type": "uint256"
        }
      ],
      "name": "Approval",
      "type": "event"
    },
    {
      "anonymous": false,
      "inputs": [
        {
          "indexed": true,
          "internalType": "address",
          "name": "owner",
          "type": "address"
        },
        {
          "indexed": true,
          "internalType": "address",
          "name": "operator",
          "type": "address"
        },
        {
          "indexed": false,
          "internalType": "bool",
          "name": "approved",
          "type": "bool"
        }
      ],
      "name": "ApprovalForAll",
      "type": "event"
    },
    {
      "anonymous": false,
      "inputs": [
        {
          "indexed": false,
          "internalType": "uint256",
          "name": "_fromTokenId",
          "type": "uint256"
        },
        {
          "indexed": false,
          "internalType": "uint256",
          "name": "_toTokenId",
          "type": "uint256"
        }
      ],
      "name": "BatchMetadataUpdate",
      "type": "event"
    },
    {
      "anonymous": false,
      "inputs": [
        {
          "indexed": false,
          "internalType": "uint256",
          "name": "_tokenId",
          "type": "uint256"
        }
      ],
      "name": "MetadataUpdate",
      "type": "event"
    },
    {
      "anonymous": false,
      "inputs": [
        {
          "indexed": true,
          "internalType": "address",
          "name": "previousOwner",
          "type": "address"
        },
        {
          "indexed": true,
          "internalType": "address",
          "name": "newOwner",
          "type": "address"
        }
      ],
      "name": "OwnershipTransferred",
      "type": "event"
    },
    {
      "anonymous": false,
      "inputs": [
        {
          "indexed": true,
          "internalType": "address",
          "name": "from",
          "type": "address"
        },
        {
          "indexed": true,
          "internalType": "address",
          "name": "to",
          "type": "address"
        },
        {
          "indexed": true,
          "internalType": "uint256",
          "name": "tokenId",
          "type": "uint256"
        }
      ],
      "name": "Transfer",
      "type": "event"
    },
    {
      "inputs": [
        {
          "internalType": "address",
          "name": "to",
          "type": "address"
        },
        {
          "internalType": "uint256",
          "name": "tokenId",
          "type": "uint256"
        }
      ],
      "name": "approve",
      "outputs": [],
      "stateMutability": "nonpayable",
      "type": "function"
    },
    {
      "inputs": [
        {
          "internalType": "address",
          "name": "owner",
          "type": "address"
        }
      ],
      "name": "balanceOf",
      "outputs": [
        {
          "internalType": "uint256",
          "name": "",
          "type": "uint256"
        }
      ],
      "stateMutability": "view",
      "type": "function"
    },
    {
      "inputs": [
        {
          "internalType": "uint256",
          "name": "tokenId",
          "type": "uint256"
        }
      ],
      "name": "getApproved",
      "outputs": [
        {
          "internalType": "address",
          "name": "",
          "type": "address"
        }
      ],
      "stateMutability": "view",
      "type": "function"
    },
    {
      "inputs": [
        {
          "internalType": "address",
          "name": "owner",
          "type": "address"
        },
        {
          "internalType": "address",
          "name": "operator",
          "type": "address"
        }
      ],
      "name": "isApprovedForAll",
      "outputs": [
        {
          "internalType": "bool",
          "name": "",
          "type": "bool"
        }
      ],
      "stateMutability": "view",
      "type": "function"
    },
    {
      "inputs": [
        {
          "internalType": "address",
          "name": "_to",
          "type": "address"
        },
        {
          "internalType": "uint256",
          "name": "_tokenId",
          "type": "uint256"
        },
        {
          "internalType": "string",
          "name": "_uri",
          "type": "string"
        }
      ],
      "name": "mint",
      "outputs": [],
      "stateMutability": "nonpayable",
      "type": "function"
    },
    {
      "inputs": [],
      "name": "name",
      "outputs": [
        {
          "internalType": "string",
          "name": "",
          "type": "string"
        }
      ],
      "stateMutability": "view",
      "type": "function"
    },
    {
      "inputs": [],
      "name": "owner",
      "outputs": [
        {
          "internalType": "address",
          "name": "",
          "type": "address"
        }
      ],
      "stateMutability": "view",
      "type": "function"
    },
    {
      "inputs": [
        {
          "internalType": "uint256",
          "name": "tokenId",
          "type": "uint256"
        }
      ],
      "name": "ownerOf",
      "outputs": [
        {
          "internalType": "address",
          "name": "",
          "type": "address"
        }
      ],
      "stateMutability": "view",
      "type": "function"
    },
    {
      "inputs": [],
      "name": "renounceOwnership",
      "outputs": [],
      "stateMutability": "nonpayable",
      "type": "function"
    },
    {
      "inputs": [
        {
          "internalType": "address",
          "name": "from",
          "type": "address"
        },
        {
          "internalType": "address",
          "name": "to",
          "type": "address"
        },
        {
          "internalType": "uint256",
          "name": "tokenId",
          "type": "uint256"
        }
      ],
      "name": "safeTransferFrom",
      "outputs": [],
      "stateMutability": "nonpayable",
      "type": "function"
    },
    {
      "inputs": [
        {
          "internalType": "address",
          "name": "from",
          "type": "address"
        },
        {
          "internalType": "address",
          "name": "to",
          "type": "address"
        },
        {
          "internalType": "uint256",
          "name": "tokenId",
          "type": "uint256"
        },
        {
          "internalType": "bytes",
          "name": "data",
          "type": "bytes"
        }
      ],
      "name": "safeTransferFrom",
      "outputs": [],
      "stateMutability": "nonpayable",
      "type": "function"
    },
    {
      "inputs": [
        {
          "internalType": "address",
          "name": "operator",
          "type": "address"
        },
        {
          "internalType": "bool",
          "name": "approved",
          "type": "bool"
        }
      ],
      "name": "setApprovalForAll",
      "outputs": [],
      "stateMutability": "nonpayable",
      "type": "function"
    },
    {
      "inputs": [
        {
          "internalType": "bytes4",
          "name": "interfaceId",
          "type": "bytes4"
        }
      ],
      "name": "supportsInterface",
      "outputs": [
        {
          "internalType": "bool",
          "name": "",
          "type": "bool"
        }
      ],
      "stateMutability": "view",
      "type": "function"
    },
    {
      "inputs": [],
      "name": "symbol",
      "outputs": [
        {
          "internalType": "string",
          "name": "",
          "type": "string"
        }
      ],
      "stateMutability": "view",
      "type": "function"
    },
    {
      "inputs": [
        {
          "internalType": "uint256",
          "name": "tokenId",
          "type": "uint256"
        }
      ],
      "name": "tokenURI",
      "outputs": [
        {
          "internalType": "string",
          "name": "",
          "type": "string"
        }
      ],
      "stateMutability": "view",
      "type": "function"
    },
    {
      "inputs": [
        {
          "internalType": "address",
          "name": "from",
          "type": "address"
        },
        {
          "internalType": "address",
          "name": "to",
          "type": "address"
        },
        {
          "internalType": "uint256",
          "name": "tokenId",
          "type": "uint256"
        }
      ],
      "name": "transferFrom",
      "outputs": [],
      "stateMutability": "nonpayable",
      "type": "function"
    },
    {
      "inputs": [
        {
          "internalType": "address",
          "name": "newOwner",
          "type": "address"
        }
      ],
      "name": "transferOwnership",
      "outputs": [],
      "stateMutability": "nonpayable",
      "type": "function"
    }
  ],
  "bytecode": "0x60806040523480156200001157600080fd5b5060405162001d8838038062001d88833981016040819052620000349162000193565b818160006200004483826200028c565b5060016200005382826200028c565b505050620000706200006a6200007860201b60201c565b6200007c565b505062000358565b3390565b600780546001600160a01b038381166001600160a01b0319831681179093556040519116919082907f8be0079c531659141344cd1fd0a4f28419497f9722a3daafe3b4186f6b6457e090600090a35050565b634e487b7160e01b600052604160045260246000fd5b600082601f830112620000f657600080fd5b81516001600160401b0380821115620001135762000113620000ce565b604051601f8301601f19908116603f011681019082821181831017156200013e576200013e620000ce565b816040528381526020925086838588010111156200015b57600080fd5b600091505b838210156200017f578582018301518183018401529082019062000160565b600093810190920192909252949350505050565b60008060408385031215620001a757600080fd5b82516001600160401b0380821115620001bf57600080fd5b620001cd86838701620000e4565b93506020850151915080821115620001e457600080fd5b50620001f385828601620000e4565b9150509250929050565b600181811c908216806200021257607f821691505b6020821081036200023357634e487b7160e01b600052602260045260246000fd5b50919050565b601f8211156200028757600081815260208120601f850160051c81016020861015620002625750805b601f850160051c820191505b8181101562000283578281556001016200026e565b5050505b505050565b81516001600160401b03811115620002a857620002a8620000ce565b620002c081620002b98454620001fd565b8462000239565b602080601f831160018114620002f85760008415620002df5750858301515b600019600386901b1c1916600185901b17855562000283565b600085815260208120601f198616915b82811015620003295788860151825594840194600190910190840162000308565b5085821015620003485787850151600019600388901b60f8161c191681555b5050505050600190811b01905550565b611a2080620003686000396000f3fe608060405234801561001057600080fd5b506004361061011b5760003560e01c8063715018a6116100b2578063b88d4fde11610081578063d3fc986411610066578063d3fc986414610251578063e985e9c514610264578063f2fde38b146102a057600080fd5b8063b88d4fde1461022b578063c87b56dd1461023e57600080fd5b8063715018a6146101f75780638da5cb5b146101ff57806395d89b4114610210578063a22cb4651461021857600080fd5b806323b872dd116100ee57806323b872dd1461019d57806342842e0e146101b05780636352211e146101c357806370a08231146101d657600080fd5b806301ffc9a71461012057806306fdde0314610148578063081812fc1461015d578063095ea7b314610188575b600080fd5b61013361012e3660046114fc565b6102b3565b60405190151581526020015b60405180910390f35b6101506102f7565b60405161013f9190611569565b61017061016b36600461157c565b610389565b6040516001600160a01b03909116815260200161013f565b61019b6101963660046115b1565b6103b0565b005b61019b6101ab3660046115db565b6104e6565b61019b6101be3660046115db565b61055d565b6101706101d136600461157c565b610578565b6101e96101e4366004611617565b6105dd565b60405190815260200161013f565b61019b610677565b6007546001600160a01b0316610170565b61015061068b565b61019b610226366004611632565b61069a565b61019b610239366004611684565b6106a9565b61015061024c36600461157c565b610727565b61019b61025f366004611760565b610837565b6101336102723660046117e7565b6001600160a01b03918216600090815260056020908152604080832093909416825291909152205460ff1690565b61019b6102ae366004611617565b610889565b60006001600160e01b031982167f490649060000000000000000000000000000000000000000000000000000000014806102f157506102f182610919565b92915050565b6060600080546103069061181a565b80601f01602080910402602001604051908101604052809291908181526020018280546103329061181a565b801561037f5780601f106103545761010080835404028352916020019161037f565b820191906000526020600020905b81548152906001019060200180831161036257829003601f168201915b5050505050905090565b6000610394826109b4565b506000908152600460205260409020546001600160a01b031690565b60006103bb82610578565b9050806001600160a01b0316836001600160a01b0316036104495760405162461bcd60e51b815260206004820152602160248201527f4552433732313a20617070726f76616c20746f2063757272656e74206f776e6560448201527f720000000000000000000000000000000000000000000000000000000000000060648201526084015b60405180910390fd5b336001600160a01b038216148061046557506104658133610272565b6104d75760405162461bcd60e51b815260206004820152603d60248201527f4552433732313a20617070726f76652063616c6c6572206973206e6f7420746f60448201527f6b656e206f776e6572206f7220617070726f76656420666f7220616c6c0000006064820152608401610440565b6104e18383610a18565b505050565b6104f03382610a93565b6105525760405162461bcd60e51b815260206004820152602d60248201527f4552433732313a2063616c6c6572206973206e6f7420746f6b656e206f776e6560448201526c1c881bdc88185c1c1c9bdd9959609a1b6064820152608401610440565b6104e1838383610b11565b6104e1838383604051806020016040528060008152506106a9565b6000818152600260205260408120546001600160a01b0316806102f15760405162461bcd60e51b815260206004820152601860248201527f4552433732313a20696e76616c696420746f6b656e20494400000000000000006044820152606401610440565b60006001600160a01b03821661065b5760405162461bcd60e51b815260206004820152602960248201527f4552433732313a2061646472657373207a65726f206973206e6f74206120766160448201527f6c6964206f776e657200000000000000000000000000000000000000000000006064820152608401610440565b506001600160a01b031660009081526003602052604090205490565b61067f610d17565b6106896000610d71565b565b6060600180546103069061181a565b6106a5338383610dd0565b5050565b6106b33383610a93565b6107155760405162461bcd60e51b815260206004820152602d60248201527f4552433732313a2063616c6c6572206973206e6f7420746f6b656e206f776e6560448201526c1c881bdc88185c1c1c9bdd9959609a1b6064820152608401610440565b61072184848484610e9e565b50505050565b6060610732826109b4565b6000828152600660205260408120805461074b9061181a565b80601f01602080910402602001604051908101604052809291908181526020018280546107779061181a565b80156107c45780601f10610799576101008083540402835291602001916107c4565b820191906000526020600020905b8154815290600101906020018083116107a757829003601f168201915b5050505050905060006107e260408051602081019091526000815290565b905080516000036107f4575092915050565b81511561082657808260405160200161080e929190611854565b60405160208183030381529060405292505050919050565b61082f84610f27565b949350505050565b61083f610d17565b6108498484610f9b565b6107218383838080601f01602080910402602001604051908101604052809392919081815260200183838082843760009201919091525061113392505050565b610891610d17565b6001600160a01b03811661090d5760405162461bcd60e51b815260206004820152602660248201527f4f776e61626c653a206e6577206f776e657220697320746865207a65726f206160448201527f64647265737300000000000000000000000000000000000000000000000000006064820152608401610440565b61091681610d71565b50565b60006001600160e01b031982167f80ac58cd00000000000000000000000000000000000000000000000000000000148061097c57506001600160e01b031982167f5b5e139f00000000000000000000000000000000000000000000000000000000145b806102f157507f01ffc9a7000000000000000000000000000000000000000000000000000000006001600160e01b03198316146102f1565b6000818152600260205260409020546001600160a01b03166109165760405162461bcd60e51b815260206004820152601860248201527f4552433732313a20696e76616c696420746f6b656e20494400000000000000006044820152606401610440565b6000818152600460205260409020805473ffffffffffffffffffffffffffffffffffffffff19166001600160a01b0384169081179091558190610a5a82610578565b6001600160a01b03167f8c5be1e5ebec7d5bd14f71427d1e84f3dd0314c0f7b2291e5b200ac8c7c3b92560405160405180910390a45050565b600080610a9f83610578565b9050806001600160a01b0316846001600160a01b03161480610ae657506001600160a01b0380821660009081526005602090815260408083209388168352929052205460ff165b8061082f5750836001600160a01b0316610aff84610389565b6001600160a01b031614949350505050565b826001600160a01b0316610b2482610578565b6001600160a01b031614610b885760405162461bcd60e51b815260206004820152602560248201527f4552433732313a207472616e736665722066726f6d20696e636f72726563742060448201526437bbb732b960d91b6064820152608401610440565b6001600160a01b038216610c035760405162461bcd60e51b8152602060048201526024808201527f4552433732313a207472616e7366657220746f20746865207a65726f2061646460448201527f72657373000000000000000000000000000000000000000000000000000000006064820152608401610440565b826001600160a01b0316610c1682610578565b6001600160a01b031614610c7a5760405162461bcd60e51b815260206004820152602560248201527f4552433732313a207472616e736665722066726f6d20696e636f72726563742060448201526437bbb732b960d91b6064820152608401610440565b6000818152600460209081526040808320805473ffffffffffffffffffffffffffffffffffffffff199081169091556001600160a01b0387811680865260038552838620805460001901905590871680865283862080546001019055868652600290945282852080549092168417909155905184937fddf252ad1be2c89b69c2b068fc378daa952ba7f163c4a11628f55a4df523b3ef91a4505050565b6007546001600160a01b031633146106895760405162461bcd60e51b815260206004820181905260248201527f4f776e61626c653a2063616c6c6572206973206e6f7420746865206f776e65726044820152606401610440565b600780546001600160a01b0383811673ffffffffffffffffffffffffffffffffffffffff19831681179093556040519116919082907f8be0079c531659141344cd1fd0a4f28419497f9722a3daafe3b4186f6b6457e090600090a35050565b816001600160a01b0316836001600160a01b031603610e315760405162461bcd60e51b815260206004820152601960248201527f4552433732313a20617070726f766520746f2063616c6c6572000000000000006044820152606401610440565b6001600160a01b03838116600081815260056020908152604080832094871680845294825291829020805460ff191686151590811790915591519182527f17307eab39ab6107e8899845ad3d59bd9653f200f220920489ca2b5937696c31910160405180910390a3505050565b610ea9848484610b11565b610eb58484848461120d565b6107215760405162461bcd60e51b815260206004820152603260248201527f4552433732313a207472616e7366657220746f206e6f6e20455243373231526560448201527f63656976657220696d706c656d656e74657200000000000000000000000000006064820152608401610440565b6060610f32826109b4565b6000610f4960408051602081019091526000815290565b90506000815111610f695760405180602001604052806000815250610f94565b80610f7384611364565b604051602001610f84929190611854565b6040516020818303038152906040525b9392505050565b6001600160a01b038216610ff15760405162461bcd60e51b815260206004820181905260248201527f4552433732313a206d696e7420746f20746865207a65726f20616464726573736044820152606401610440565b6000818152600260205260409020546001600160a01b0316156110565760405162461bcd60e51b815260206004820152601c60248201527f4552433732313a20746f6b656e20616c7265616479206d696e746564000000006044820152606401610440565b6000818152600260205260409020546001600160a01b0316156110bb5760405162461bcd60e51b815260206004820152601c60248201527f4552433732313a20746f6b656e20616c7265616479206d696e746564000000006044820152606401610440565b6001600160a01b0382166000818152600360209081526040808320805460010190558483526002909152808220805473ffffffffffffffffffffffffffffffffffffffff19168417905551839291907fddf252ad1be2c89b69c2b068fc378daa952ba7f163c4a11628f55a4df523b3ef908290a45050565b6000828152600260205260409020546001600160a01b03166111bd5760405162461bcd60e51b815260206004820152602e60248201527f45524337323155524953746f726167653a2055524920736574206f66206e6f6e60448201527f6578697374656e7420746f6b656e0000000000000000000000000000000000006064820152608401610440565b60008281526006602052604090206111d582826118d1565b506040518281527ff8e1a15aba9398e019f0b49df1a4fde98ee17ae345cb5f6b5e2c27f5033e8ce79060200160405180910390a15050565b60006001600160a01b0384163b1561135957604051630a85bd0160e11b81526001600160a01b0385169063150b7a0290611251903390899088908890600401611991565b6020604051808303816000875af192505050801561128c575060408051601f3d908101601f19168201909252611289918101906119cd565b60015b61133f573d8080156112ba576040519150601f19603f3d011682016040523d82523d6000602084013e6112bf565b606091505b5080516000036113375760405162461bcd60e51b815260206004820152603260248201527f4552433732313a207472616e7366657220746f206e6f6e20455243373231526560448201527f63656976657220696d706c656d656e74657200000000000000000000000000006064820152608401610440565b805181602001fd5b6001600160e01b031916630a85bd0160e11b14905061082f565b506001949350505050565b6060600061137183611404565b600101905060008167ffffffffffffffff8111156113915761139161166e565b6040519080825280601f01601f1916602001820160405280156113bb576020820181803683370190505b5090508181016020015b600019017f3031323334353637383961626364656600000000000000000000000000000000600a86061a8153600a85049450846113c557509392505050565b6000807a184f03e93ff9f4daa797ed6e38ed64bf6a1f010000000000000000831061144d577a184f03e93ff9f4daa797ed6e38ed64bf6a1f010000000000000000830492506040015b6d04ee2d6d415b85acef81000000008310611479576d04ee2d6d415b85acef8100000000830492506020015b662386f26fc10000831061149757662386f26fc10000830492506010015b6305f5e10083106114af576305f5e100830492506008015b61271083106114c357612710830492506004015b606483106114d5576064830492506002015b600a83106102f15760010192915050565b6001600160e01b03198116811461091657600080fd5b60006020828403121561150e57600080fd5b8135610f94816114e6565b60005b8381101561153457818101518382015260200161151c565b50506000910152565b60008151808452611555816020860160208601611519565b601f01601f19169290920160200192915050565b602081526000610f94602083018461153d565b60006020828403121561158e57600080fd5b5035919050565b80356001600160a01b03811681146115ac57600080fd5b919050565b600080604083850312156115c457600080fd5b6115cd83611595565b946020939093013593505050565b6000806000606084860312156115f057600080fd5b6115f984611595565b925061160760208501611595565b9150604084013590509250925092565b60006020828403121561162957600080fd5b610f9482611595565b6000806040838503121561164557600080fd5b61164e83611595565b91506020830135801515811461166357600080fd5b809150509250929050565b634e487b7160e01b600052604160045260246000fd5b6000806000806080858703121561169a57600080fd5b6116a385611595565b93506116b160208601611595565b925060408501359150606085013567ffffffffffffffff808211156116d557600080fd5b818701915087601f8301126116e957600080fd5b8135818111156116fb576116fb61166e565b604051601f8201601f19908116603f011681019083821181831017156117235761172361166e565b816040528281528a602084870101111561173c57600080fd5b82602086016020830137600060208483010152809550505050505092959194509250565b6000806000806060858703121561177657600080fd5b61177f85611595565b935060208501359250604085013567ffffffffffffffff808211156117a357600080fd5b818701915087601f8301126117b757600080fd5b8135818111156117c657600080fd5b8860208285010111156117d857600080fd5b95989497505060200194505050565b600080604083850312156117fa57600080fd5b61180383611595565b915061181160208401611595565b90509250929050565b600181811c9082168061182e57607f821691505b60208210810361184e57634e487b7160e01b600052602260045260246000fd5b50919050565b60008351611866818460208801611519565b83519083019061187a818360208801611519565b01949350505050565b601f8211156104e157600081815260208120601f850160051c810160208610156118aa5750805b601f850160051c820191505b818110156118c9578281556001016118b6565b505050505050565b815167ffffffffffffffff8111156118eb576118eb61166e565b6118ff816118f9845461181a565b84611883565b602080601f831160018114611934576000841561191c5750858301515b600019600386901b1c1916600185901b1785556118c9565b600085815260208120601f198616915b8281101561196357888601518255948401946001909101908401611944565b50858210156119815787850151600019600388901b60f8161c191681555b5050505050600190811b01905550565b60006001600160a01b038087168352808616602084015250836040830152608060608301526119c3608083018461153d565b9695505050505050565b6000602082840312156119df57600080fd5b8151610f94816114e656fea264697066735822122026159625671d6c4056e7519040844f6c034c83519791e35d8c070390a4afde3264736f6c63430008110033",
  "linkReferences": {},
  "deployedLinkReferences": {}
}