{
  "_format": "hh-sol-artifact-1",
  "contractName": "NFT",
  "sourceName": "contracts/NFT.sol",
  "abi": [
    {
      "inputs": [
        {
          "internalType": "address",
          "name": "enterprise_",
          "type": "address"
        }
      ],
      "stateMutability": "nonpayable",
      "type": "constructor"
    },
    {
      "anonymous": false,
      "inputs": [
        {
          "indexed": true,
          "internalType": "address",
          "name": "owner",
          "type": "address"
        },
        {
          "indexed": true,
          "internalType": "address",
          "name": "approved",
          "type": "address"
        },
        {
          "indexed": true,
          "internalType": "uint256",
          "name": "tokenId",
          "type": "uint256"
        }
      ],
      "name": "Approval",
      "type": "event"
    },
    {
      "anonymous": false,
      "inputs": [
        {
          "indexed": true,
          "internalType": "address",
          "name": "owner",
          "type": "address"
        },
        {
          "indexed": true,
          "internalType": "address",
          "name": "operator",
          "type": "address"
        },
        {
          "indexed": false,
          "internalType": "bool",
          "name": "approved",
          "type": "bool"
        }
      ],
      "name": "ApprovalForAll",
      "type": "event"
    },
    {
      "anonymous": false,
      "inputs": [
        {
          "indexed": false,
          "internalType": "uint256",
          "name": "_fromTokenId",
          "type": "uint256"
        },
        {
          "indexed": false,
          "internalType": "uint256",
          "name": "_toTokenId",
          "type": "uint256"
        }
      ],
      "name": "BatchMetadataUpdate",
      "type": "event"
    },
    {
      "anonymous": false,
      "inputs": [
        {
          "indexed": false,
          "internalType": "uint256",
          "name": "_tokenId",
          "type": "uint256"
        }
      ],
      "name": "MetadataUpdate",
      "type": "event"
    },
    {
      "anonymous": false,
      "inputs": [
        {
          "indexed": true,
          "internalType": "address",
          "name": "previousOwner",
          "type": "address"
        },
        {
          "indexed": true,
          "internalType": "address",
          "name": "newOwner",
          "type": "address"
        }
      ],
      "name": "OwnershipTransferred",
      "type": "event"
    },
    {
      "anonymous": false,
      "inputs": [
        {
          "indexed": true,
          "internalType": "address",
          "name": "from",
          "type": "address"
        },
        {
          "indexed": true,
          "internalType": "address",
          "name": "to",
          "type": "address"
        },
        {
          "indexed": true,
          "internalType": "uint256",
          "name": "tokenId",
          "type": "uint256"
        }
      ],
      "name": "Transfer",
      "type": "event"
    },
    {
      "inputs": [
        {
          "internalType": "address",
          "name": "to",
          "type": "address"
        },
        {
          "internalType": "uint256",
          "name": "tokenId",
          "type": "uint256"
        }
      ],
      "name": "approve",
      "outputs": [],
      "stateMutability": "nonpayable",
      "type": "function"
    },
    {
      "inputs": [
        {
          "internalType": "address",
          "name": "owner",
          "type": "address"
        }
      ],
      "name": "balanceOf",
      "outputs": [
        {
          "internalType": "uint256",
          "name": "",
          "type": "uint256"
        }
      ],
      "stateMutability": "view",
      "type": "function"
    },
    {
      "inputs": [
        {
          "internalType": "uint256",
          "name": "_tokenId",
          "type": "uint256"
        }
      ],
      "name": "buyNFT",
      "outputs": [],
      "stateMutability": "nonpayable",
      "type": "function"
    },
    {
      "inputs": [],
      "name": "enterprise",
      "outputs": [
        {
          "internalType": "contract Token",
          "name": "",
          "type": "address"
        }
      ],
      "stateMutability": "view",
      "type": "function"
    },
    {
      "inputs": [
        {
          "internalType": "uint256",
          "name": "tokenId",
          "type": "uint256"
        }
      ],
      "name": "getApproved",
      "outputs": [
        {
          "internalType": "address",
          "name": "",
          "type": "address"
        }
      ],
      "stateMutability": "view",
      "type": "function"
    },
    {
      "inputs": [
        {
          "internalType": "uint256",
          "name": "_tokenId",
          "type": "uint256"
        }
      ],
      "name": "getNFTInfo",
      "outputs": [
        {
          "internalType": "uint256",
          "name": "price",
          "type": "uint256"
        },
        {
          "internalType": "bool",
          "name": "isSelling",
          "type": "bool"
        }
      ],
      "stateMutability": "view",
      "type": "function"
    },
    {
      "inputs": [
        {
          "internalType": "address",
          "name": "owner",
          "type": "address"
        },
        {
          "internalType": "address",
          "name": "operator",
          "type": "address"
        }
      ],
      "name": "isApprovedForAll",
      "outputs": [
        {
          "internalType": "bool",
          "name": "",
          "type": "bool"
        }
      ],
      "stateMutability": "view",
      "type": "function"
    },
    {
      "inputs": [
        {
          "internalType": "address",
          "name": "_to",
          "type": "address"
        },
        {
          "internalType": "uint256",
          "name": "_tokenId",
          "type": "uint256"
        },
        {
          "internalType": "string",
          "name": "_uri",
          "type": "string"
        },
        {
          "internalType": "uint256",
          "name": "price",
          "type": "uint256"
        }
      ],
      "name": "mint",
      "outputs": [],
      "stateMutability": "nonpayable",
      "type": "function"
    },
    {
      "inputs": [],
      "name": "name",
      "outputs": [
        {
          "internalType": "string",
          "name": "",
          "type": "string"
        }
      ],
      "stateMutability": "view",
      "type": "function"
    },
    {
      "inputs": [],
      "name": "owner",
      "outputs": [
        {
          "internalType": "address",
          "name": "",
          "type": "address"
        }
      ],
      "stateMutability": "view",
      "type": "function"
    },
    {
      "inputs": [
        {
          "internalType": "uint256",
          "name": "tokenId",
          "type": "uint256"
        }
      ],
      "name": "ownerOf",
      "outputs": [
        {
          "internalType": "address",
          "name": "",
          "type": "address"
        }
      ],
      "stateMutability": "view",
      "type": "function"
    },
    {
      "inputs": [],
      "name": "renounceOwnership",
      "outputs": [],
      "stateMutability": "nonpayable",
      "type": "function"
    },
    {
      "inputs": [
        {
          "internalType": "address",
          "name": "from",
          "type": "address"
        },
        {
          "internalType": "address",
          "name": "to",
          "type": "address"
        },
        {
          "internalType": "uint256",
          "name": "tokenId",
          "type": "uint256"
        }
      ],
      "name": "safeTransferFrom",
      "outputs": [],
      "stateMutability": "nonpayable",
      "type": "function"
    },
    {
      "inputs": [
        {
          "internalType": "address",
          "name": "from",
          "type": "address"
        },
        {
          "internalType": "address",
          "name": "to",
          "type": "address"
        },
        {
          "internalType": "uint256",
          "name": "tokenId",
          "type": "uint256"
        },
        {
          "internalType": "bytes",
          "name": "data",
          "type": "bytes"
        }
      ],
      "name": "safeTransferFrom",
      "outputs": [],
      "stateMutability": "nonpayable",
      "type": "function"
    },
    {
      "inputs": [
        {
          "internalType": "address",
          "name": "operator",
          "type": "address"
        },
        {
          "internalType": "bool",
          "name": "approved",
          "type": "bool"
        }
      ],
      "name": "setApprovalForAll",
      "outputs": [],
      "stateMutability": "nonpayable",
      "type": "function"
    },
    {
      "inputs": [
        {
          "internalType": "uint256",
          "name": "_tokenId",
          "type": "uint256"
        },
        {
          "internalType": "uint256",
          "name": "price",
          "type": "uint256"
        }
      ],
      "name": "setPrice",
      "outputs": [],
      "stateMutability": "nonpayable",
      "type": "function"
    },
    {
      "inputs": [
        {
          "internalType": "uint256",
          "name": "_tokenId",
          "type": "uint256"
        },
        {
          "internalType": "bool",
          "name": "isSelling",
          "type": "bool"
        }
      ],
      "name": "setSellingNFT",
      "outputs": [],
      "stateMutability": "nonpayable",
      "type": "function"
    },
    {
      "inputs": [
        {
          "internalType": "bytes4",
          "name": "interfaceId",
          "type": "bytes4"
        }
      ],
      "name": "supportsInterface",
      "outputs": [
        {
          "internalType": "bool",
          "name": "",
          "type": "bool"
        }
      ],
      "stateMutability": "view",
      "type": "function"
    },
    {
      "inputs": [],
      "name": "symbol",
      "outputs": [
        {
          "internalType": "string",
          "name": "",
          "type": "string"
        }
      ],
      "stateMutability": "view",
      "type": "function"
    },
    {
      "inputs": [
        {
          "internalType": "uint256",
          "name": "tokenId",
          "type": "uint256"
        }
      ],
      "name": "tokenURI",
      "outputs": [
        {
          "internalType": "string",
          "name": "",
          "type": "string"
        }
      ],
      "stateMutability": "view",
      "type": "function"
    },
    {
      "inputs": [
        {
          "internalType": "address",
          "name": "from",
          "type": "address"
        },
        {
          "internalType": "address",
          "name": "to",
          "type": "address"
        },
        {
          "internalType": "uint256",
          "name": "tokenId",
          "type": "uint256"
        }
      ],
      "name": "transferFrom",
      "outputs": [],
      "stateMutability": "nonpayable",
      "type": "function"
    },
    {
      "inputs": [
        {
          "internalType": "address",
          "name": "newOwner",
          "type": "address"
        }
      ],
      "name": "transferOwnership",
      "outputs": [],
      "stateMutability": "nonpayable",
      "type": "function"
    }
  ],
  "bytecode": "0x60806040523480156200001157600080fd5b5060405162002377380380620023778339810160408190526200003491620001bc565b806001600160a01b03166306fdde036040518163ffffffff1660e01b8152600401600060405180830381865afa15801562000073573d6000803e3d6000fd5b505050506040513d6000823e601f3d908101601f191682016040526200009d919081019062000204565b816001600160a01b03166395d89b416040518163ffffffff1660e01b8152600401600060405180830381865afa158015620000dc573d6000803e3d6000fd5b505050506040513d6000823e601f3d908101601f1916820160405262000106919081019062000204565b600062000114838262000368565b50600162000123828262000368565b505050620001406200013a6200016660201b60201c565b6200016a565b600880546001600160a01b0319166001600160a01b039290921691909117905562000434565b3390565b600780546001600160a01b038381166001600160a01b0319831681179093556040519116919082907f8be0079c531659141344cd1fd0a4f28419497f9722a3daafe3b4186f6b6457e090600090a35050565b600060208284031215620001cf57600080fd5b81516001600160a01b0381168114620001e757600080fd5b9392505050565b634e487b7160e01b600052604160045260246000fd5b600060208083850312156200021857600080fd5b82516001600160401b03808211156200023057600080fd5b818501915085601f8301126200024557600080fd5b8151818111156200025a576200025a620001ee565b604051601f8201601f19908116603f01168101908382118183101715620002855762000285620001ee565b8160405282815288868487010111156200029e57600080fd5b600093505b82841015620002c25784840186015181850187015292850192620002a3565b600086848301015280965050505050505092915050565b600181811c90821680620002ee57607f821691505b6020821081036200030f57634e487b7160e01b600052602260045260246000fd5b50919050565b601f8211156200036357600081815260208120601f850160051c810160208610156200033e5750805b601f850160051c820191505b818110156200035f578281556001016200034a565b5050505b505050565b81516001600160401b03811115620003845762000384620001ee565b6200039c81620003958454620002d9565b8462000315565b602080601f831160018114620003d45760008415620003bb5750858301515b600019600386901b1c1916600185901b1785556200035f565b600085815260208120601f198616915b828110156200040557888601518255948401946001909101908401620003e4565b5085821015620004245787850151600019600388901b60f8161c191681555b5050505050600190811b01905550565b611f3380620004446000396000f3fe608060405234801561001057600080fd5b50600436106101825760003560e01c8063715018a6116100d8578063b88d4fde1161008c578063e985e9c511610066578063e985e9c51461032c578063f2fde38b14610368578063f7d975771461037b57600080fd5b8063b88d4fde146102de578063c87b56dd146102f1578063d188929f1461030457600080fd5b80639478a8c0116100bd5780639478a8c0146102b057806395d89b41146102c3578063a22cb465146102cb57600080fd5b8063715018a6146102975780638da5cb5b1461029f57600080fd5b806323b872dd1161013a5780636352211e116101145780636352211e1461025057806365696f001461026357806370a082311461027657600080fd5b806323b872dd1461021757806342842e0e1461022a57806351ed82881461023d57600080fd5b8063081812fc1161016b578063081812fc146101c457806308a8d7aa146101ef578063095ea7b31461020457600080fd5b806301ffc9a71461018757806306fdde03146101af575b600080fd5b61019a61019536600461199a565b61038e565b60405190151581526020015b60405180910390f35b6101b76103d2565b6040516101a69190611a07565b6101d76101d2366004611a1a565b610464565b6040516001600160a01b0390911681526020016101a6565b6102026101fd366004611a4f565b61048b565b005b610202610212366004611ade565b610611565b610202610225366004611b08565b610742565b610202610238366004611b08565b6107b9565b61020261024b366004611a1a565b6107d4565b6101d761025e366004611a1a565b61091c565b610202610271366004611b52565b610981565b610289610284366004611b82565b610a0d565b6040519081526020016101a6565b610202610aa7565b6007546001600160a01b03166101d7565b6008546101d7906001600160a01b031681565b6101b7610abb565b6102026102d9366004611b9d565b610aca565b6102026102ec366004611bdf565b610ad9565b6101b76102ff366004611a1a565b610b57565b610317610312366004611a1a565b610c67565b604080519283529015156020830152016101a6565b61019a61033a366004611cbb565b6001600160a01b03918216600090815260056020908152604080832093909416825291909152205460ff1690565b610202610376366004611b82565b610ca9565b610202610389366004611cee565b610d39565b60006001600160e01b031982167f490649060000000000000000000000000000000000000000000000000000000014806103cc57506103cc82610db7565b92915050565b6060600080546103e190611d10565b80601f016020809104026020016040519081016040528092919081815260200182805461040d90611d10565b801561045a5780601f1061042f5761010080835404028352916020019161045a565b820191906000526020600020905b81548152906001019060200180831161043d57829003601f168201915b5050505050905090565b600061046f82610e52565b506000908152600460205260409020546001600160a01b031690565b6008546040517f429b62e50000000000000000000000000000000000000000000000000000000081523360048201526001600160a01b039091169063429b62e590602401602060405180830381865afa1580156104ec573d6000803e3d6000fd5b505050506040513d601f19601f820116820180604052508101906105109190611d4a565b6105875760405162461bcd60e51b815260206004820152602160248201527f4f6e6c792061646d696e2063616e2063616c6c20746869732066756e6374696f60448201527f6e0000000000000000000000000000000000000000000000000000000000000060648201526084015b60405180910390fd5b6105918585610eb6565b6105d18484848080601f01602080910402602001604051908101604052809392919081815260200183838082843760009201919091525061104e92505050565b60408051808201825291825260016020808401828152600097885260099091529190952091518255519301805460ff191693151593909317909255505050565b600061061c8261091c565b9050806001600160a01b0316836001600160a01b0316036106a55760405162461bcd60e51b815260206004820152602160248201527f4552433732313a20617070726f76616c20746f2063757272656e74206f776e6560448201527f7200000000000000000000000000000000000000000000000000000000000000606482015260840161057e565b336001600160a01b03821614806106c157506106c1813361033a565b6107335760405162461bcd60e51b815260206004820152603d60248201527f4552433732313a20617070726f76652063616c6c6572206973206e6f7420746f60448201527f6b656e206f776e6572206f7220617070726f76656420666f7220616c6c000000606482015260840161057e565b61073d8383611128565b505050565b61074c33826111a3565b6107ae5760405162461bcd60e51b815260206004820152602d60248201527f4552433732313a2063616c6c6572206973206e6f7420746f6b656e206f776e6560448201526c1c881bdc88185c1c1c9bdd9959609a1b606482015260840161057e565b61073d838383611221565b61073d83838360405180602001604052806000815250610ad9565b6107dd81610e52565b6000818152600960205260409020600181015460ff166108655760405162461bcd60e51b815260206004820152602660248201527f54686973204e4654206861736e2774206265656e20736f6c642062792074686560448201527f206f776e65720000000000000000000000000000000000000000000000000000606482015260840161057e565b6008546001600160a01b03166323b872dd336108808561091c565b845460405160e085901b6001600160e01b03191681526001600160a01b03938416600482015292909116602483015260448201526064016020604051808303816000875af11580156108d6573d6000803e3d6000fd5b505050506040513d601f19601f820116820180604052508101906108fa9190611d4a565b5061090e6109078361091c565b3384611221565b600101805460ff1916905550565b6000818152600260205260408120546001600160a01b0316806103cc5760405162461bcd60e51b815260206004820152601860248201527f4552433732313a20696e76616c696420746f6b656e2049440000000000000000604482015260640161057e565b61098a82610e52565b336109948361091c565b6001600160a01b0316146109ea5760405162461bcd60e51b815260206004820152601e60248201527f4f6e6c79206f776e65722063616e2073656c6c207468656972204e4654730000604482015260640161057e565b600091825260096020526040909120600101805460ff1916911515919091179055565b60006001600160a01b038216610a8b5760405162461bcd60e51b815260206004820152602960248201527f4552433732313a2061646472657373207a65726f206973206e6f74206120766160448201527f6c6964206f776e65720000000000000000000000000000000000000000000000606482015260840161057e565b506001600160a01b031660009081526003602052604090205490565b610aaf611427565b610ab96000611481565b565b6060600180546103e190611d10565b610ad53383836114e0565b5050565b610ae333836111a3565b610b455760405162461bcd60e51b815260206004820152602d60248201527f4552433732313a2063616c6c6572206973206e6f7420746f6b656e206f776e6560448201526c1c881bdc88185c1c1c9bdd9959609a1b606482015260840161057e565b610b51848484846115ae565b50505050565b6060610b6282610e52565b60008281526006602052604081208054610b7b90611d10565b80601f0160208091040260200160405190810160405280929190818152602001828054610ba790611d10565b8015610bf45780601f10610bc957610100808354040283529160200191610bf4565b820191906000526020600020905b815481529060010190602001808311610bd757829003601f168201915b505050505090506000610c1260408051602081019091526000815290565b90508051600003610c24575092915050565b815115610c56578082604051602001610c3e929190611d67565b60405160208183030381529060405292505050919050565b610c5f84611637565b949350505050565b600080610c7383610e52565b50506000908152600960209081526040918290208251808401909352805480845260019091015460ff1615159290910182905291565b610cb1611427565b6001600160a01b038116610d2d5760405162461bcd60e51b815260206004820152602660248201527f4f776e61626c653a206e6577206f776e657220697320746865207a65726f206160448201527f6464726573730000000000000000000000000000000000000000000000000000606482015260840161057e565b610d3681611481565b50565b610d4333836111a3565b610da55760405162461bcd60e51b815260206004820152602d60248201527f4552433732313a2063616c6c6572206973206e6f7420746f6b656e206f776e6560448201526c1c881bdc88185c1c1c9bdd9959609a1b606482015260840161057e565b60009182526009602052604090912055565b60006001600160e01b031982167f80ac58cd000000000000000000000000000000000000000000000000000000001480610e1a57506001600160e01b031982167f5b5e139f00000000000000000000000000000000000000000000000000000000145b806103cc57507f01ffc9a7000000000000000000000000000000000000000000000000000000006001600160e01b03198316146103cc565b6000818152600260205260409020546001600160a01b0316610d365760405162461bcd60e51b815260206004820152601860248201527f4552433732313a20696e76616c696420746f6b656e2049440000000000000000604482015260640161057e565b6001600160a01b038216610f0c5760405162461bcd60e51b815260206004820181905260248201527f4552433732313a206d696e7420746f20746865207a65726f2061646472657373604482015260640161057e565b6000818152600260205260409020546001600160a01b031615610f715760405162461bcd60e51b815260206004820152601c60248201527f4552433732313a20746f6b656e20616c7265616479206d696e74656400000000604482015260640161057e565b6000818152600260205260409020546001600160a01b031615610fd65760405162461bcd60e51b815260206004820152601c60248201527f4552433732313a20746f6b656e20616c7265616479206d696e74656400000000604482015260640161057e565b6001600160a01b0382166000818152600360209081526040808320805460010190558483526002909152808220805473ffffffffffffffffffffffffffffffffffffffff19168417905551839291907fddf252ad1be2c89b69c2b068fc378daa952ba7f163c4a11628f55a4df523b3ef908290a45050565b6000828152600260205260409020546001600160a01b03166110d85760405162461bcd60e51b815260206004820152602e60248201527f45524337323155524953746f726167653a2055524920736574206f66206e6f6e60448201527f6578697374656e7420746f6b656e000000000000000000000000000000000000606482015260840161057e565b60008281526006602052604090206110f08282611de4565b506040518281527ff8e1a15aba9398e019f0b49df1a4fde98ee17ae345cb5f6b5e2c27f5033e8ce79060200160405180910390a15050565b6000818152600460205260409020805473ffffffffffffffffffffffffffffffffffffffff19166001600160a01b038416908117909155819061116a8261091c565b6001600160a01b03167f8c5be1e5ebec7d5bd14f71427d1e84f3dd0314c0f7b2291e5b200ac8c7c3b92560405160405180910390a45050565b6000806111af8361091c565b9050806001600160a01b0316846001600160a01b031614806111f657506001600160a01b0380821660009081526005602090815260408083209388168352929052205460ff165b80610c5f5750836001600160a01b031661120f84610464565b6001600160a01b031614949350505050565b826001600160a01b03166112348261091c565b6001600160a01b0316146112985760405162461bcd60e51b815260206004820152602560248201527f4552433732313a207472616e736665722066726f6d20696e636f72726563742060448201526437bbb732b960d91b606482015260840161057e565b6001600160a01b0382166113135760405162461bcd60e51b8152602060048201526024808201527f4552433732313a207472616e7366657220746f20746865207a65726f2061646460448201527f7265737300000000000000000000000000000000000000000000000000000000606482015260840161057e565b826001600160a01b03166113268261091c565b6001600160a01b03161461138a5760405162461bcd60e51b815260206004820152602560248201527f4552433732313a207472616e736665722066726f6d20696e636f72726563742060448201526437bbb732b960d91b606482015260840161057e565b6000818152600460209081526040808320805473ffffffffffffffffffffffffffffffffffffffff199081169091556001600160a01b0387811680865260038552838620805460001901905590871680865283862080546001019055868652600290945282852080549092168417909155905184937fddf252ad1be2c89b69c2b068fc378daa952ba7f163c4a11628f55a4df523b3ef91a4505050565b6007546001600160a01b03163314610ab95760405162461bcd60e51b815260206004820181905260248201527f4f776e61626c653a2063616c6c6572206973206e6f7420746865206f776e6572604482015260640161057e565b600780546001600160a01b0383811673ffffffffffffffffffffffffffffffffffffffff19831681179093556040519116919082907f8be0079c531659141344cd1fd0a4f28419497f9722a3daafe3b4186f6b6457e090600090a35050565b816001600160a01b0316836001600160a01b0316036115415760405162461bcd60e51b815260206004820152601960248201527f4552433732313a20617070726f766520746f2063616c6c657200000000000000604482015260640161057e565b6001600160a01b03838116600081815260056020908152604080832094871680845294825291829020805460ff191686151590811790915591519182527f17307eab39ab6107e8899845ad3d59bd9653f200f220920489ca2b5937696c31910160405180910390a3505050565b6115b9848484611221565b6115c5848484846116ab565b610b515760405162461bcd60e51b815260206004820152603260248201527f4552433732313a207472616e7366657220746f206e6f6e20455243373231526560448201527f63656976657220696d706c656d656e7465720000000000000000000000000000606482015260840161057e565b606061164282610e52565b600061165960408051602081019091526000815290565b9050600081511161167957604051806020016040528060008152506116a4565b8061168384611802565b604051602001611694929190611d67565b6040516020818303038152906040525b9392505050565b60006001600160a01b0384163b156117f757604051630a85bd0160e11b81526001600160a01b0385169063150b7a02906116ef903390899088908890600401611ea4565b6020604051808303816000875af192505050801561172a575060408051601f3d908101601f1916820190925261172791810190611ee0565b60015b6117dd573d808015611758576040519150601f19603f3d011682016040523d82523d6000602084013e61175d565b606091505b5080516000036117d55760405162461bcd60e51b815260206004820152603260248201527f4552433732313a207472616e7366657220746f206e6f6e20455243373231526560448201527f63656976657220696d706c656d656e7465720000000000000000000000000000606482015260840161057e565b805181602001fd5b6001600160e01b031916630a85bd0160e11b149050610c5f565b506001949350505050565b6060600061180f836118a2565b600101905060008167ffffffffffffffff81111561182f5761182f611bc9565b6040519080825280601f01601f191660200182016040528015611859576020820181803683370190505b5090508181016020015b600019017f3031323334353637383961626364656600000000000000000000000000000000600a86061a8153600a850494508461186357509392505050565b6000807a184f03e93ff9f4daa797ed6e38ed64bf6a1f01000000000000000083106118eb577a184f03e93ff9f4daa797ed6e38ed64bf6a1f010000000000000000830492506040015b6d04ee2d6d415b85acef81000000008310611917576d04ee2d6d415b85acef8100000000830492506020015b662386f26fc10000831061193557662386f26fc10000830492506010015b6305f5e100831061194d576305f5e100830492506008015b612710831061196157612710830492506004015b60648310611973576064830492506002015b600a83106103cc5760010192915050565b6001600160e01b031981168114610d3657600080fd5b6000602082840312156119ac57600080fd5b81356116a481611984565b60005b838110156119d25781810151838201526020016119ba565b50506000910152565b600081518084526119f38160208601602086016119b7565b601f01601f19169290920160200192915050565b6020815260006116a460208301846119db565b600060208284031215611a2c57600080fd5b5035919050565b80356001600160a01b0381168114611a4a57600080fd5b919050565b600080600080600060808688031215611a6757600080fd5b611a7086611a33565b945060208601359350604086013567ffffffffffffffff80821115611a9457600080fd5b818801915088601f830112611aa857600080fd5b813581811115611ab757600080fd5b896020828501011115611ac957600080fd5b96999598505060200195606001359392505050565b60008060408385031215611af157600080fd5b611afa83611a33565b946020939093013593505050565b600080600060608486031215611b1d57600080fd5b611b2684611a33565b9250611b3460208501611a33565b9150604084013590509250925092565b8015158114610d3657600080fd5b60008060408385031215611b6557600080fd5b823591506020830135611b7781611b44565b809150509250929050565b600060208284031215611b9457600080fd5b6116a482611a33565b60008060408385031215611bb057600080fd5b611bb983611a33565b91506020830135611b7781611b44565b634e487b7160e01b600052604160045260246000fd5b60008060008060808587031215611bf557600080fd5b611bfe85611a33565b9350611c0c60208601611a33565b925060408501359150606085013567ffffffffffffffff80821115611c3057600080fd5b818701915087601f830112611c4457600080fd5b813581811115611c5657611c56611bc9565b604051601f8201601f19908116603f01168101908382118183101715611c7e57611c7e611bc9565b816040528281528a6020848701011115611c9757600080fd5b82602086016020830137600060208483010152809550505050505092959194509250565b60008060408385031215611cce57600080fd5b611cd783611a33565b9150611ce560208401611a33565b90509250929050565b60008060408385031215611d0157600080fd5b50508035926020909101359150565b600181811c90821680611d2457607f821691505b602082108103611d4457634e487b7160e01b600052602260045260246000fd5b50919050565b600060208284031215611d5c57600080fd5b81516116a481611b44565b60008351611d798184602088016119b7565b835190830190611d8d8183602088016119b7565b01949350505050565b601f82111561073d57600081815260208120601f850160051c81016020861015611dbd5750805b601f850160051c820191505b81811015611ddc57828155600101611dc9565b505050505050565b815167ffffffffffffffff811115611dfe57611dfe611bc9565b611e1281611e0c8454611d10565b84611d96565b602080601f831160018114611e475760008415611e2f5750858301515b600019600386901b1c1916600185901b178555611ddc565b600085815260208120601f198616915b82811015611e7657888601518255948401946001909101908401611e57565b5085821015611e945787850151600019600388901b60f8161c191681555b5050505050600190811b01905550565b60006001600160a01b03808716835280861660208401525083604083015260806060830152611ed660808301846119db565b9695505050505050565b600060208284031215611ef257600080fd5b81516116a48161198456fea26469706673582212209bb7e1303c31deb09806f25cf8c32e9270b635e903ad66deea7516b1505023b164736f6c63430008110033",
  "linkReferences": {},
  "deployedLinkReferences": {}
}