{"contracts/HTLC.sol":{"HTLC":{"abi":[{"inputs":[],"stateMutability":"nonpayable","type":"constructor"},{"anonymous":false,"inputs":[{"indexed":false,"internalType":"address","name":"from","type":"address"},{"indexed":false,"internalType":"uint256","name":"amount","type":"uint256"}],"name":"canceled","type":"event"},{"anonymous":false,"inputs":[{"indexed":false,"internalType":"address","name":"from","type":"address"},{"indexed":false,"internalType":"uint256","name":"amount","type":"uint256"}],"name":"withdrawn","type":"event"},{"inputs":[{"internalType":"string","name":"txId","type":"string"},{"internalType":"address","name":"receiver","type":"address"}],"name":"acceptFor","outputs":[],"stateMutability":"nonpayable","type":"function"},{"inputs":[{"internalType":"string","name":"id","type":"string"},{"internalType":"address","name":"receiver","type":"address"},{"internalType":"address","name":"token","type":"address"},{"internalType":"uint256","name":"amount","type":"uint256"},{"internalType":"string","name":"key","type":"string"},{"internalType":"bytes32","name":"hashlock","type":"bytes32"},{"internalType":"uint256","name":"timelock","type":"uint256"},{"internalType":"bytes","name":"signature","type":"bytes"}],"name":"createTx","outputs":[{"internalType":"bool","name":"","type":"bool"}],"stateMutability":"nonpayable","type":"function"},{"inputs":[{"internalType":"string","name":"txId","type":"string"}],"name":"getSecretKey","outputs":[{"internalType":"string","name":"","type":"string"}],"stateMutability":"view","type":"function"},{"inputs":[{"internalType":"string","name":"txId","type":"string"}],"name":"refund","outputs":[],"stateMutability":"nonpayable","type":"function"},{"inputs":[{"internalType":"string","name":"txId","type":"string"},{"internalType":"string","name":"_key","type":"string"}],"name":"withDraw","outputs":[],"stateMutability":"nonpayable","type":"function"}],"evm":{"bytecode":{"linkReferences":{},"object":"608060405234801561001057600080fd5b5061110a806100206000396000f3fe608060405234801561001057600080fd5b50600436106100675760003560e01c80636ea48ef2116100505780636ea48ef2146100aa578063f878631e146100cd578063fe5f2e88146100e057600080fd5b806302db27131461006c5780633a4e0be814610095575b600080fd5b61007f61007a366004610c9a565b6100f3565b60405161008c9190610d27565b60405180910390f35b6100a86100a3366004610d41565b6102d2565b005b6100bd6100b8366004610dc1565b610570565b604051901515815260200161008c565b6100a86100db366004610e88565b610864565b6100a86100ee366004610c9a565b6109d9565b606060006001600160a01b03166000836040516101109190610ed6565b908152604051908190036020019020546001600160a01b03160361017b5760405162461bcd60e51b815260206004820152601f60248201527f54686973207472616e73616374696f6e20646f65736e2774206578697374730060448201526064015b60405180910390fd5b336001600160a01b03166000836040516101959190610ed6565b908152604051908190036020019020546001600160a01b0316146102215760405162461bcd60e51b815260206004820152602160248201527f4f6e6c79206f776e65722063616e206765742074686520736563726574206b6560448201527f79000000000000000000000000000000000000000000000000000000000000006064820152608401610172565b6000826040516102319190610ed6565b9081526020016040518091039020600401805461024d90610ef2565b80601f016020809104026020016040519081016040528092919081815260200182805461027990610ef2565b80156102c65780601f1061029b576101008083540402835291602001916102c6565b820191906000526020600020905b8154815290600101906020018083116102a957829003601f168201915b50505050509050919050565b600080836040516102e39190610ed6565b908152604051908190036020019020600781015490915060ff61010090910416156103505760405162461bcd60e51b815260206004820152601d60248201527f5472616e73616374696f6e20686173206265656e2063616e63656c65640000006044820152606401610172565b600781015460ff16156103a55760405162461bcd60e51b815260206004820152601e60248201527f5472616e73616374696f6e20686173206265656e2077697468647261776e00006044820152606401610172565b60018101546001600160a01b031633146104015760405162461bcd60e51b815260206004820152601a60248201527f4f6e6c792072656365697665722063616e2077697468647261770000000000006044820152606401610172565b8060050154826040516020016104179190610ed6565b604051602081830303815290604052805190602001201461047a5760405162461bcd60e51b815260206004820152600d60248201527f496e636f7272656374206b6579000000000000000000000000000000000000006044820152606401610172565b60028101546001820154600383015460405163a9059cbb60e01b81526001600160a01b039283166004820152602481019190915291169063a9059cbb906044016020604051808303816000875af11580156104d9573d6000803e3d6000fd5b505050506040513d601f19601f820116820180604052508101906104fd9190610f2c565b506004810161050c8382610f9d565b5060078101805460ff191660019081179091558101546003820154604080516001600160a01b03909316835260208301919091527f6fb24f3ad0678f9d138e80b17293be051d87911eb34e9e60f0d1b9c3805e885a910160405180910390a1505050565b6000806001600160a01b031660008a60405161058c9190610ed6565b908152604051908190036020019020546001600160a01b0316146105f25760405162461bcd60e51b815260206004820152601b60248201527f4475706c6963617465207472616e73616374696f6e20627920696400000000006044820152606401610172565b6001600160a01b038816330361064a5760405162461bcd60e51b815260206004820152601460248201527f545472616e73616374696f6e20696e76616c69640000000000000000000000006044820152606401610172565b604051806101400160405280336001600160a01b03168152602001896001600160a01b03168152602001886001600160a01b0316815260200187815260200186815260200185815260200184610e106106a39190611073565b6106ad9042611090565b81526000602082018190526040808301829052606090920181905290516106d5908c90610ed6565b90815260408051602092819003830190208351815473ffffffffffffffffffffffffffffffffffffffff199081166001600160a01b0392831617835593850151600183018054861691831691909117905591840151600282018054909416921691909117909155606082015160038201556080820151600482019061075a9082610f9d565b5060a0820151600582015560c0820151600682015560e082015160079091018054610100808501516101209095015161ffff1990921693151561ff001916939093179315159092029290921762ff0000191662010000911515919091021790556040516000906107cb908b90610ed6565b908152604051908190036020018120600201547fdf8ab3300000000000000000000000000000000000000000000000000000000082526001600160a01b03169063df8ab330906108239033908a9087906004016110a3565b600060405180830381600087803b15801561083d57600080fd5b505af1158015610851573d6000803e3d6000fd5b5060019c9b505050505050505050505050565b6001600160a01b03811633036108bc5760405162461bcd60e51b815260206004820152601860248201527f43616e27742061636365707420627920796f757273656c6600000000000000006044820152606401610172565b600080836040516108cd9190610ed6565b90815260405190819003602001902080549091506001600160a01b031633146109385760405162461bcd60e51b815260206004820152601f60248201527f4f6e6c79206f776e65722063616e206772616e74207065726d697373696f6e006044820152606401610172565b60018101546001600160a01b0316156109935760405162461bcd60e51b815260206004820152601d60248201527f5472616e73616374696f6e20686173206265656e2061636365707465640000006044820152606401610172565b6001810180546001600160a01b0390931673ffffffffffffffffffffffffffffffffffffffff1990931692909217909155600701805462ff000019166201000017905550565b600080826040516109ea9190610ed6565b908152604051908190036020019020600781015490915060ff16158015610a1b57506007810154610100900460ff16155b610a675760405162461bcd60e51b815260206004820152600c60248201527f43616e277420726566756e6400000000000000000000000000000000000000006044820152606401610172565b600781015462010000900460ff1615610ac25760405162461bcd60e51b815260206004820152601a60248201527f5472616e73616374696f6e20697320696e2070726f67726573730000000000006044820152606401610172565b4281600601541115610b165760405162461bcd60e51b815260206004820152601360248201527f546f6f206561726c7920746f20726566756e64000000000000000000000000006044820152606401610172565b60028101548154600383015460405163a9059cbb60e01b81526001600160a01b039283166004820152602481019190915291169063a9059cbb906044016020604051808303816000875af1158015610b72573d6000803e3d6000fd5b505050506040513d601f19601f82011682018060405250810190610b969190610f2c565b5060078101805461ff00191661010017905580546003820154604080516001600160a01b03909316835260208301919091527fb0fff5d2b17a855b0a22a0965386bcf2f7a8a364c81497c7ea721f3b771ba47e910160405180910390a15050565b634e487b7160e01b600052604160045260246000fd5b600082601f830112610c1e57600080fd5b813567ffffffffffffffff80821115610c3957610c39610bf7565b604051601f8301601f19908116603f01168101908282118183101715610c6157610c61610bf7565b81604052838152866020858801011115610c7a57600080fd5b836020870160208301376000602085830101528094505050505092915050565b600060208284031215610cac57600080fd5b813567ffffffffffffffff811115610cc357600080fd5b610ccf84828501610c0d565b949350505050565b60005b83811015610cf2578181015183820152602001610cda565b50506000910152565b60008151808452610d13816020860160208601610cd7565b601f01601f19169290920160200192915050565b602081526000610d3a6020830184610cfb565b9392505050565b60008060408385031215610d5457600080fd5b823567ffffffffffffffff80821115610d6c57600080fd5b610d7886838701610c0d565b93506020850135915080821115610d8e57600080fd5b50610d9b85828601610c0d565b9150509250929050565b80356001600160a01b0381168114610dbc57600080fd5b919050565b600080600080600080600080610100898b031215610dde57600080fd5b883567ffffffffffffffff80821115610df657600080fd5b610e028c838d01610c0d565b9950610e1060208c01610da5565b9850610e1e60408c01610da5565b975060608b0135965060808b0135915080821115610e3b57600080fd5b610e478c838d01610c0d565b955060a08b0135945060c08b0135935060e08b0135915080821115610e6b57600080fd5b50610e788b828c01610c0d565b9150509295985092959890939650565b60008060408385031215610e9b57600080fd5b823567ffffffffffffffff811115610eb257600080fd5b610ebe85828601610c0d565b925050610ecd60208401610da5565b90509250929050565b60008251610ee8818460208701610cd7565b9190910192915050565b600181811c90821680610f0657607f821691505b602082108103610f2657634e487b7160e01b600052602260045260246000fd5b50919050565b600060208284031215610f3e57600080fd5b81518015158114610d3a57600080fd5b601f821115610f9857600081815260208120601f850160051c81016020861015610f755750805b601f850160051c820191505b81811015610f9457828155600101610f81565b5050505b505050565b815167ffffffffffffffff811115610fb757610fb7610bf7565b610fcb81610fc58454610ef2565b84610f4e565b602080601f8311600181146110005760008415610fe85750858301515b600019600386901b1c1916600185901b178555610f94565b600085815260208120601f198616915b8281101561102f57888601518255948401946001909101908401611010565b508582101561104d5787850151600019600388901b60f8161c191681555b5050505050600190811b01905550565b634e487b7160e01b600052601160045260246000fd5b808202811582820484141761108a5761108a61105d565b92915050565b8082018082111561108a5761108a61105d565b6001600160a01b03841681528260208201526060604082015260006110cb6060830184610cfb565b9594505050505056fea2646970667358221220ac1e77a8ab674e768d96b129166c795e8469527c285593d202dbdd1be5edd86c64736f6c63430008110033","opcodes":"PUSH1 0x80 PUSH1 0x40 MSTORE CALLVALUE DUP1 ISZERO PUSH2 0x10 JUMPI PUSH1 0x0 DUP1 REVERT JUMPDEST POP PUSH2 0x110A DUP1 PUSH2 0x20 PUSH1 0x0 CODECOPY PUSH1 0x0 RETURN INVALID PUSH1 0x80 PUSH1 0x40 MSTORE CALLVALUE DUP1 ISZERO PUSH2 0x10 JUMPI PUSH1 0x0 DUP1 REVERT JUMPDEST POP PUSH1 0x4 CALLDATASIZE LT PUSH2 0x67 JUMPI PUSH1 0x0 CALLDATALOAD PUSH1 0xE0 SHR DUP1 PUSH4 0x6EA48EF2 GT PUSH2 0x50 JUMPI DUP1 PUSH4 0x6EA48EF2 EQ PUSH2 0xAA JUMPI DUP1 PUSH4 0xF878631E EQ PUSH2 0xCD JUMPI DUP1 PUSH4 0xFE5F2E88 EQ PUSH2 0xE0 JUMPI PUSH1 0x0 DUP1 REVERT JUMPDEST DUP1 PUSH4 0x2DB2713 EQ PUSH2 0x6C JUMPI DUP1 PUSH4 0x3A4E0BE8 EQ PUSH2 0x95 JUMPI JUMPDEST PUSH1 0x0 DUP1 REVERT JUMPDEST PUSH2 0x7F PUSH2 0x7A CALLDATASIZE PUSH1 0x4 PUSH2 0xC9A JUMP JUMPDEST PUSH2 0xF3 JUMP JUMPDEST PUSH1 0x40 MLOAD PUSH2 0x8C SWAP2 SWAP1 PUSH2 0xD27 JUMP JUMPDEST PUSH1 0x40 MLOAD DUP1 SWAP2 SUB SWAP1 RETURN JUMPDEST PUSH2 0xA8 PUSH2 0xA3 CALLDATASIZE PUSH1 0x4 PUSH2 0xD41 JUMP JUMPDEST PUSH2 0x2D2 JUMP JUMPDEST STOP JUMPDEST PUSH2 0xBD PUSH2 0xB8 CALLDATASIZE PUSH1 0x4 PUSH2 0xDC1 JUMP JUMPDEST PUSH2 0x570 JUMP JUMPDEST PUSH1 0x40 MLOAD SWAP1 ISZERO ISZERO DUP2 MSTORE PUSH1 0x20 ADD PUSH2 0x8C JUMP JUMPDEST PUSH2 0xA8 PUSH2 0xDB CALLDATASIZE PUSH1 0x4 PUSH2 0xE88 JUMP JUMPDEST PUSH2 0x864 JUMP JUMPDEST PUSH2 0xA8 PUSH2 0xEE CALLDATASIZE PUSH1 0x4 PUSH2 0xC9A JUMP JUMPDEST PUSH2 0x9D9 JUMP JUMPDEST PUSH1 0x60 PUSH1 0x0 PUSH1 0x1 PUSH1 0x1 PUSH1 0xA0 SHL SUB AND PUSH1 0x0 DUP4 PUSH1 0x40 MLOAD PUSH2 0x110 SWAP2 SWAP1 PUSH2 0xED6 JUMP JUMPDEST SWAP1 DUP2 MSTORE PUSH1 0x40 MLOAD SWAP1 DUP2 SWAP1 SUB PUSH1 0x20 ADD SWAP1 KECCAK256 SLOAD PUSH1 0x1 PUSH1 0x1 PUSH1 0xA0 SHL SUB AND SUB PUSH2 0x17B JUMPI PUSH1 0x40 MLOAD PUSH3 0x461BCD PUSH1 0xE5 SHL DUP2 MSTORE PUSH1 0x20 PUSH1 0x4 DUP3 ADD MSTORE PUSH1 0x1F PUSH1 0x24 DUP3 ADD MSTORE PUSH32 0x54686973207472616E73616374696F6E20646F65736E27742065786973747300 PUSH1 0x44 DUP3 ADD MSTORE PUSH1 0x64 ADD JUMPDEST PUSH1 0x40 MLOAD DUP1 SWAP2 SUB SWAP1 REVERT JUMPDEST CALLER PUSH1 0x1 PUSH1 0x1 PUSH1 0xA0 SHL SUB AND PUSH1 0x0 DUP4 PUSH1 0x40 MLOAD PUSH2 0x195 SWAP2 SWAP1 PUSH2 0xED6 JUMP JUMPDEST SWAP1 DUP2 MSTORE PUSH1 0x40 MLOAD SWAP1 DUP2 SWAP1 SUB PUSH1 0x20 ADD SWAP1 KECCAK256 SLOAD PUSH1 0x1 PUSH1 0x1 PUSH1 0xA0 SHL SUB AND EQ PUSH2 0x221 JUMPI PUSH1 0x40 MLOAD PUSH3 0x461BCD PUSH1 0xE5 SHL DUP2 MSTORE PUSH1 0x20 PUSH1 0x4 DUP3 ADD MSTORE PUSH1 0x21 PUSH1 0x24 DUP3 ADD MSTORE PUSH32 0x4F6E6C79206F776E65722063616E206765742074686520736563726574206B65 PUSH1 0x44 DUP3 ADD MSTORE PUSH32 0x7900000000000000000000000000000000000000000000000000000000000000 PUSH1 0x64 DUP3 ADD MSTORE PUSH1 0x84 ADD PUSH2 0x172 JUMP JUMPDEST PUSH1 0x0 DUP3 PUSH1 0x40 MLOAD PUSH2 0x231 SWAP2 SWAP1 PUSH2 0xED6 JUMP JUMPDEST SWAP1 DUP2 MSTORE PUSH1 0x20 ADD PUSH1 0x40 MLOAD DUP1 SWAP2 SUB SWAP1 KECCAK256 PUSH1 0x4 ADD DUP1 SLOAD PUSH2 0x24D SWAP1 PUSH2 0xEF2 JUMP JUMPDEST DUP1 PUSH1 0x1F ADD PUSH1 0x20 DUP1 SWAP2 DIV MUL PUSH1 0x20 ADD PUSH1 0x40 MLOAD SWAP1 DUP2 ADD PUSH1 0x40 MSTORE DUP1 SWAP3 SWAP2 SWAP1 DUP2 DUP2 MSTORE PUSH1 0x20 ADD DUP3 DUP1 SLOAD PUSH2 0x279 SWAP1 PUSH2 0xEF2 JUMP JUMPDEST DUP1 ISZERO PUSH2 0x2C6 JUMPI DUP1 PUSH1 0x1F LT PUSH2 0x29B JUMPI PUSH2 0x100 DUP1 DUP4 SLOAD DIV MUL DUP4 MSTORE SWAP2 PUSH1 0x20 ADD SWAP2 PUSH2 0x2C6 JUMP JUMPDEST DUP3 ADD SWAP2 SWAP1 PUSH1 0x0 MSTORE PUSH1 0x20 PUSH1 0x0 KECCAK256 SWAP1 JUMPDEST DUP2 SLOAD DUP2 MSTORE SWAP1 PUSH1 0x1 ADD SWAP1 PUSH1 0x20 ADD DUP1 DUP4 GT PUSH2 0x2A9 JUMPI DUP3 SWAP1 SUB PUSH1 0x1F AND DUP3 ADD SWAP2 JUMPDEST POP POP POP POP POP SWAP1 POP SWAP2 SWAP1 POP JUMP JUMPDEST PUSH1 0x0 DUP1 DUP4 PUSH1 0x40 MLOAD PUSH2 0x2E3 SWAP2 SWAP1 PUSH2 0xED6 JUMP JUMPDEST SWAP1 DUP2 MSTORE PUSH1 0x40 MLOAD SWAP1 DUP2 SWAP1 SUB PUSH1 0x20 ADD SWAP1 KECCAK256 PUSH1 0x7 DUP2 ADD SLOAD SWAP1 SWAP2 POP PUSH1 0xFF PUSH2 0x100 SWAP1 SWAP2 DIV AND ISZERO PUSH2 0x350 JUMPI PUSH1 0x40 MLOAD PUSH3 0x461BCD PUSH1 0xE5 SHL DUP2 MSTORE PUSH1 0x20 PUSH1 0x4 DUP3 ADD MSTORE PUSH1 0x1D PUSH1 0x24 DUP3 ADD MSTORE PUSH32 0x5472616E73616374696F6E20686173206265656E2063616E63656C6564000000 PUSH1 0x44 DUP3 ADD MSTORE PUSH1 0x64 ADD PUSH2 0x172 JUMP JUMPDEST PUSH1 0x7 DUP2 ADD SLOAD PUSH1 0xFF AND ISZERO PUSH2 0x3A5 JUMPI PUSH1 0x40 MLOAD PUSH3 0x461BCD PUSH1 0xE5 SHL DUP2 MSTORE PUSH1 0x20 PUSH1 0x4 DUP3 ADD MSTORE PUSH1 0x1E PUSH1 0x24 DUP3 ADD MSTORE PUSH32 0x5472616E73616374696F6E20686173206265656E2077697468647261776E0000 PUSH1 0x44 DUP3 ADD MSTORE PUSH1 0x64 ADD PUSH2 0x172 JUMP JUMPDEST PUSH1 0x1 DUP2 ADD SLOAD PUSH1 0x1 PUSH1 0x1 PUSH1 0xA0 SHL SUB AND CALLER EQ PUSH2 0x401 JUMPI PUSH1 0x40 MLOAD PUSH3 0x461BCD PUSH1 0xE5 SHL DUP2 MSTORE PUSH1 0x20 PUSH1 0x4 DUP3 ADD MSTORE PUSH1 0x1A PUSH1 0x24 DUP3 ADD MSTORE PUSH32 0x4F6E6C792072656365697665722063616E207769746864726177000000000000 PUSH1 0x44 DUP3 ADD MSTORE PUSH1 0x64 ADD PUSH2 0x172 JUMP JUMPDEST DUP1 PUSH1 0x5 ADD SLOAD DUP3 PUSH1 0x40 MLOAD PUSH1 0x20 ADD PUSH2 0x417 SWAP2 SWAP1 PUSH2 0xED6 JUMP JUMPDEST PUSH1 0x40 MLOAD PUSH1 0x20 DUP2 DUP4 SUB SUB DUP2 MSTORE SWAP1 PUSH1 0x40 MSTORE DUP1 MLOAD SWAP1 PUSH1 0x20 ADD KECCAK256 EQ PUSH2 0x47A JUMPI PUSH1 0x40 MLOAD PUSH3 0x461BCD PUSH1 0xE5 SHL DUP2 MSTORE PUSH1 0x20 PUSH1 0x4 DUP3 ADD MSTORE PUSH1 0xD PUSH1 0x24 DUP3 ADD MSTORE PUSH32 0x496E636F7272656374206B657900000000000000000000000000000000000000 PUSH1 0x44 DUP3 ADD MSTORE PUSH1 0x64 ADD PUSH2 0x172 JUMP JUMPDEST PUSH1 0x2 DUP2 ADD SLOAD PUSH1 0x1 DUP3 ADD SLOAD PUSH1 0x3 DUP4 ADD SLOAD PUSH1 0x40 MLOAD PUSH4 0xA9059CBB PUSH1 0xE0 SHL DUP2 MSTORE PUSH1 0x1 PUSH1 0x1 PUSH1 0xA0 SHL SUB SWAP3 DUP4 AND PUSH1 0x4 DUP3 ADD MSTORE PUSH1 0x24 DUP2 ADD SWAP2 SWAP1 SWAP2 MSTORE SWAP2 AND SWAP1 PUSH4 0xA9059CBB SWAP1 PUSH1 0x44 ADD PUSH1 0x20 PUSH1 0x40 MLOAD DUP1 DUP4 SUB DUP2 PUSH1 0x0 DUP8 GAS CALL ISZERO DUP1 ISZERO PUSH2 0x4D9 JUMPI RETURNDATASIZE PUSH1 0x0 DUP1 RETURNDATACOPY RETURNDATASIZE PUSH1 0x0 REVERT JUMPDEST POP POP POP POP PUSH1 0x40 MLOAD RETURNDATASIZE PUSH1 0x1F NOT PUSH1 0x1F DUP3 ADD AND DUP3 ADD DUP1 PUSH1 0x40 MSTORE POP DUP2 ADD SWAP1 PUSH2 0x4FD SWAP2 SWAP1 PUSH2 0xF2C JUMP JUMPDEST POP PUSH1 0x4 DUP2 ADD PUSH2 0x50C DUP4 DUP3 PUSH2 0xF9D JUMP JUMPDEST POP PUSH1 0x7 DUP2 ADD DUP1 SLOAD PUSH1 0xFF NOT AND PUSH1 0x1 SWAP1 DUP2 OR SWAP1 SWAP2 SSTORE DUP2 ADD SLOAD PUSH1 0x3 DUP3 ADD SLOAD PUSH1 0x40 DUP1 MLOAD PUSH1 0x1 PUSH1 0x1 PUSH1 0xA0 SHL SUB SWAP1 SWAP4 AND DUP4 MSTORE PUSH1 0x20 DUP4 ADD SWAP2 SWAP1 SWAP2 MSTORE PUSH32 0x6FB24F3AD0678F9D138E80B17293BE051D87911EB34E9E60F0D1B9C3805E885A SWAP2 ADD PUSH1 0x40 MLOAD DUP1 SWAP2 SUB SWAP1 LOG1 POP POP POP JUMP JUMPDEST PUSH1 0x0 DUP1 PUSH1 0x1 PUSH1 0x1 PUSH1 0xA0 SHL SUB AND PUSH1 0x0 DUP11 PUSH1 0x40 MLOAD PUSH2 0x58C SWAP2 SWAP1 PUSH2 0xED6 JUMP JUMPDEST SWAP1 DUP2 MSTORE PUSH1 0x40 MLOAD SWAP1 DUP2 SWAP1 SUB PUSH1 0x20 ADD SWAP1 KECCAK256 SLOAD PUSH1 0x1 PUSH1 0x1 PUSH1 0xA0 SHL SUB AND EQ PUSH2 0x5F2 JUMPI PUSH1 0x40 MLOAD PUSH3 0x461BCD PUSH1 0xE5 SHL DUP2 MSTORE PUSH1 0x20 PUSH1 0x4 DUP3 ADD MSTORE PUSH1 0x1B PUSH1 0x24 DUP3 ADD MSTORE PUSH32 0x4475706C6963617465207472616E73616374696F6E2062792069640000000000 PUSH1 0x44 DUP3 ADD MSTORE PUSH1 0x64 ADD PUSH2 0x172 JUMP JUMPDEST PUSH1 0x1 PUSH1 0x1 PUSH1 0xA0 SHL SUB DUP9 AND CALLER SUB PUSH2 0x64A JUMPI PUSH1 0x40 MLOAD PUSH3 0x461BCD PUSH1 0xE5 SHL DUP2 MSTORE PUSH1 0x20 PUSH1 0x4 DUP3 ADD MSTORE PUSH1 0x14 PUSH1 0x24 DUP3 ADD MSTORE PUSH32 0x545472616E73616374696F6E20696E76616C6964000000000000000000000000 PUSH1 0x44 DUP3 ADD MSTORE PUSH1 0x64 ADD PUSH2 0x172 JUMP JUMPDEST PUSH1 0x40 MLOAD DUP1 PUSH2 0x140 ADD PUSH1 0x40 MSTORE DUP1 CALLER PUSH1 0x1 PUSH1 0x1 PUSH1 0xA0 SHL SUB AND DUP2 MSTORE PUSH1 0x20 ADD DUP10 PUSH1 0x1 PUSH1 0x1 PUSH1 0xA0 SHL SUB AND DUP2 MSTORE PUSH1 0x20 ADD DUP9 PUSH1 0x1 PUSH1 0x1 PUSH1 0xA0 SHL SUB AND DUP2 MSTORE PUSH1 0x20 ADD DUP8 DUP2 MSTORE PUSH1 0x20 ADD DUP7 DUP2 MSTORE PUSH1 0x20 ADD DUP6 DUP2 MSTORE PUSH1 0x20 ADD DUP5 PUSH2 0xE10 PUSH2 0x6A3 SWAP2 SWAP1 PUSH2 0x1073 JUMP JUMPDEST PUSH2 0x6AD SWAP1 TIMESTAMP PUSH2 0x1090 JUMP JUMPDEST DUP2 MSTORE PUSH1 0x0 PUSH1 0x20 DUP3 ADD DUP2 SWAP1 MSTORE PUSH1 0x40 DUP1 DUP4 ADD DUP3 SWAP1 MSTORE PUSH1 0x60 SWAP1 SWAP3 ADD DUP2 SWAP1 MSTORE SWAP1 MLOAD PUSH2 0x6D5 SWAP1 DUP13 SWAP1 PUSH2 0xED6 JUMP JUMPDEST SWAP1 DUP2 MSTORE PUSH1 0x40 DUP1 MLOAD PUSH1 0x20 SWAP3 DUP2 SWAP1 SUB DUP4 ADD SWAP1 KECCAK256 DUP4 MLOAD DUP2 SLOAD PUSH20 0xFFFFFFFFFFFFFFFFFFFFFFFFFFFFFFFFFFFFFFFF NOT SWAP1 DUP2 AND PUSH1 0x1 PUSH1 0x1 PUSH1 0xA0 SHL SUB SWAP3 DUP4 AND OR DUP4 SSTORE SWAP4 DUP6 ADD MLOAD PUSH1 0x1 DUP4 ADD DUP1 SLOAD DUP7 AND SWAP2 DUP4 AND SWAP2 SWAP1 SWAP2 OR SWAP1 SSTORE SWAP2 DUP5 ADD MLOAD PUSH1 0x2 DUP3 ADD DUP1 SLOAD SWAP1 SWAP5 AND SWAP3 AND SWAP2 SWAP1 SWAP2 OR SWAP1 SWAP2 SSTORE PUSH1 0x60 DUP3 ADD MLOAD PUSH1 0x3 DUP3 ADD SSTORE PUSH1 0x80 DUP3 ADD MLOAD PUSH1 0x4 DUP3 ADD SWAP1 PUSH2 0x75A SWAP1 DUP3 PUSH2 0xF9D JUMP JUMPDEST POP PUSH1 0xA0 DUP3 ADD MLOAD PUSH1 0x5 DUP3 ADD SSTORE PUSH1 0xC0 DUP3 ADD MLOAD PUSH1 0x6 DUP3 ADD SSTORE PUSH1 0xE0 DUP3 ADD MLOAD PUSH1 0x7 SWAP1 SWAP2 ADD DUP1 SLOAD PUSH2 0x100 DUP1 DUP6 ADD MLOAD PUSH2 0x120 SWAP1 SWAP6 ADD MLOAD PUSH2 0xFFFF NOT SWAP1 SWAP3 AND SWAP4 ISZERO ISZERO PUSH2 0xFF00 NOT AND SWAP4 SWAP1 SWAP4 OR SWAP4 ISZERO ISZERO SWAP1 SWAP3 MUL SWAP3 SWAP1 SWAP3 OR PUSH3 0xFF0000 NOT AND PUSH3 0x10000 SWAP2 ISZERO ISZERO SWAP2 SWAP1 SWAP2 MUL OR SWAP1 SSTORE PUSH1 0x40 MLOAD PUSH1 0x0 SWAP1 PUSH2 0x7CB SWAP1 DUP12 SWAP1 PUSH2 0xED6 JUMP JUMPDEST SWAP1 DUP2 MSTORE PUSH1 0x40 MLOAD SWAP1 DUP2 SWAP1 SUB PUSH1 0x20 ADD DUP2 KECCAK256 PUSH1 0x2 ADD SLOAD PUSH32 0xDF8AB33000000000000000000000000000000000000000000000000000000000 DUP3 MSTORE PUSH1 0x1 PUSH1 0x1 PUSH1 0xA0 SHL SUB AND SWAP1 PUSH4 0xDF8AB330 SWAP1 PUSH2 0x823 SWAP1 CALLER SWAP1 DUP11 SWAP1 DUP8 SWAP1 PUSH1 0x4 ADD PUSH2 0x10A3 JUMP JUMPDEST PUSH1 0x0 PUSH1 0x40 MLOAD DUP1 DUP4 SUB DUP2 PUSH1 0x0 DUP8 DUP1 EXTCODESIZE ISZERO DUP1 ISZERO PUSH2 0x83D JUMPI PUSH1 0x0 DUP1 REVERT JUMPDEST POP GAS CALL ISZERO DUP1 ISZERO PUSH2 0x851 JUMPI RETURNDATASIZE PUSH1 0x0 DUP1 RETURNDATACOPY RETURNDATASIZE PUSH1 0x0 REVERT JUMPDEST POP PUSH1 0x1 SWAP13 SWAP12 POP POP POP POP POP POP POP POP POP POP POP POP JUMP JUMPDEST PUSH1 0x1 PUSH1 0x1 PUSH1 0xA0 SHL SUB DUP2 AND CALLER SUB PUSH2 0x8BC JUMPI PUSH1 0x40 MLOAD PUSH3 0x461BCD PUSH1 0xE5 SHL DUP2 MSTORE PUSH1 0x20 PUSH1 0x4 DUP3 ADD MSTORE PUSH1 0x18 PUSH1 0x24 DUP3 ADD MSTORE PUSH32 0x43616E27742061636365707420627920796F757273656C660000000000000000 PUSH1 0x44 DUP3 ADD MSTORE PUSH1 0x64 ADD PUSH2 0x172 JUMP JUMPDEST PUSH1 0x0 DUP1 DUP4 PUSH1 0x40 MLOAD PUSH2 0x8CD SWAP2 SWAP1 PUSH2 0xED6 JUMP JUMPDEST SWAP1 DUP2 MSTORE PUSH1 0x40 MLOAD SWAP1 DUP2 SWAP1 SUB PUSH1 0x20 ADD SWAP1 KECCAK256 DUP1 SLOAD SWAP1 SWAP2 POP PUSH1 0x1 PUSH1 0x1 PUSH1 0xA0 SHL SUB AND CALLER EQ PUSH2 0x938 JUMPI PUSH1 0x40 MLOAD PUSH3 0x461BCD PUSH1 0xE5 SHL DUP2 MSTORE PUSH1 0x20 PUSH1 0x4 DUP3 ADD MSTORE PUSH1 0x1F PUSH1 0x24 DUP3 ADD MSTORE PUSH32 0x4F6E6C79206F776E65722063616E206772616E74207065726D697373696F6E00 PUSH1 0x44 DUP3 ADD MSTORE PUSH1 0x64 ADD PUSH2 0x172 JUMP JUMPDEST PUSH1 0x1 DUP2 ADD SLOAD PUSH1 0x1 PUSH1 0x1 PUSH1 0xA0 SHL SUB AND ISZERO PUSH2 0x993 JUMPI PUSH1 0x40 MLOAD PUSH3 0x461BCD PUSH1 0xE5 SHL DUP2 MSTORE PUSH1 0x20 PUSH1 0x4 DUP3 ADD MSTORE PUSH1 0x1D PUSH1 0x24 DUP3 ADD MSTORE PUSH32 0x5472616E73616374696F6E20686173206265656E206163636570746564000000 PUSH1 0x44 DUP3 ADD MSTORE PUSH1 0x64 ADD PUSH2 0x172 JUMP JUMPDEST PUSH1 0x1 DUP2 ADD DUP1 SLOAD PUSH1 0x1 PUSH1 0x1 PUSH1 0xA0 SHL SUB SWAP1 SWAP4 AND PUSH20 0xFFFFFFFFFFFFFFFFFFFFFFFFFFFFFFFFFFFFFFFF NOT SWAP1 SWAP4 AND SWAP3 SWAP1 SWAP3 OR SWAP1 SWAP2 SSTORE PUSH1 0x7 ADD DUP1 SLOAD PUSH3 0xFF0000 NOT AND PUSH3 0x10000 OR SWAP1 SSTORE POP JUMP JUMPDEST PUSH1 0x0 DUP1 DUP3 PUSH1 0x40 MLOAD PUSH2 0x9EA SWAP2 SWAP1 PUSH2 0xED6 JUMP JUMPDEST SWAP1 DUP2 MSTORE PUSH1 0x40 MLOAD SWAP1 DUP2 SWAP1 SUB PUSH1 0x20 ADD SWAP1 KECCAK256 PUSH1 0x7 DUP2 ADD SLOAD SWAP1 SWAP2 POP PUSH1 0xFF AND ISZERO DUP1 ISZERO PUSH2 0xA1B JUMPI POP PUSH1 0x7 DUP2 ADD SLOAD PUSH2 0x100 SWAP1 DIV PUSH1 0xFF AND ISZERO JUMPDEST PUSH2 0xA67 JUMPI PUSH1 0x40 MLOAD PUSH3 0x461BCD PUSH1 0xE5 SHL DUP2 MSTORE PUSH1 0x20 PUSH1 0x4 DUP3 ADD MSTORE PUSH1 0xC PUSH1 0x24 DUP3 ADD MSTORE PUSH32 0x43616E277420726566756E640000000000000000000000000000000000000000 PUSH1 0x44 DUP3 ADD MSTORE PUSH1 0x64 ADD PUSH2 0x172 JUMP JUMPDEST PUSH1 0x7 DUP2 ADD SLOAD PUSH3 0x10000 SWAP1 DIV PUSH1 0xFF AND ISZERO PUSH2 0xAC2 JUMPI PUSH1 0x40 MLOAD PUSH3 0x461BCD PUSH1 0xE5 SHL DUP2 MSTORE PUSH1 0x20 PUSH1 0x4 DUP3 ADD MSTORE PUSH1 0x1A PUSH1 0x24 DUP3 ADD MSTORE PUSH32 0x5472616E73616374696F6E20697320696E2070726F6772657373000000000000 PUSH1 0x44 DUP3 ADD MSTORE PUSH1 0x64 ADD PUSH2 0x172 JUMP JUMPDEST TIMESTAMP DUP2 PUSH1 0x6 ADD SLOAD GT ISZERO PUSH2 0xB16 JUMPI PUSH1 0x40 MLOAD PUSH3 0x461BCD PUSH1 0xE5 SHL DUP2 MSTORE PUSH1 0x20 PUSH1 0x4 DUP3 ADD MSTORE PUSH1 0x13 PUSH1 0x24 DUP3 ADD MSTORE PUSH32 0x546F6F206561726C7920746F20726566756E6400000000000000000000000000 PUSH1 0x44 DUP3 ADD MSTORE PUSH1 0x64 ADD PUSH2 0x172 JUMP JUMPDEST PUSH1 0x2 DUP2 ADD SLOAD DUP2 SLOAD PUSH1 0x3 DUP4 ADD SLOAD PUSH1 0x40 MLOAD PUSH4 0xA9059CBB PUSH1 0xE0 SHL DUP2 MSTORE PUSH1 0x1 PUSH1 0x1 PUSH1 0xA0 SHL SUB SWAP3 DUP4 AND PUSH1 0x4 DUP3 ADD MSTORE PUSH1 0x24 DUP2 ADD SWAP2 SWAP1 SWAP2 MSTORE SWAP2 AND SWAP1 PUSH4 0xA9059CBB SWAP1 PUSH1 0x44 ADD PUSH1 0x20 PUSH1 0x40 MLOAD DUP1 DUP4 SUB DUP2 PUSH1 0x0 DUP8 GAS CALL ISZERO DUP1 ISZERO PUSH2 0xB72 JUMPI RETURNDATASIZE PUSH1 0x0 DUP1 RETURNDATACOPY RETURNDATASIZE PUSH1 0x0 REVERT JUMPDEST POP POP POP POP PUSH1 0x40 MLOAD RETURNDATASIZE PUSH1 0x1F NOT PUSH1 0x1F DUP3 ADD AND DUP3 ADD DUP1 PUSH1 0x40 MSTORE POP DUP2 ADD SWAP1 PUSH2 0xB96 SWAP2 SWAP1 PUSH2 0xF2C JUMP JUMPDEST POP PUSH1 0x7 DUP2 ADD DUP1 SLOAD PUSH2 0xFF00 NOT AND PUSH2 0x100 OR SWAP1 SSTORE DUP1 SLOAD PUSH1 0x3 DUP3 ADD SLOAD PUSH1 0x40 DUP1 MLOAD PUSH1 0x1 PUSH1 0x1 PUSH1 0xA0 SHL SUB SWAP1 SWAP4 AND DUP4 MSTORE PUSH1 0x20 DUP4 ADD SWAP2 SWAP1 SWAP2 MSTORE PUSH32 0xB0FFF5D2B17A855B0A22A0965386BCF2F7A8A364C81497C7EA721F3B771BA47E SWAP2 ADD PUSH1 0x40 MLOAD DUP1 SWAP2 SUB SWAP1 LOG1 POP POP JUMP JUMPDEST PUSH4 0x4E487B71 PUSH1 0xE0 SHL PUSH1 0x0 MSTORE PUSH1 0x41 PUSH1 0x4 MSTORE PUSH1 0x24 PUSH1 0x0 REVERT JUMPDEST PUSH1 0x0 DUP3 PUSH1 0x1F DUP4 ADD SLT PUSH2 0xC1E JUMPI PUSH1 0x0 DUP1 REVERT JUMPDEST DUP2 CALLDATALOAD PUSH8 0xFFFFFFFFFFFFFFFF DUP1 DUP3 GT ISZERO PUSH2 0xC39 JUMPI PUSH2 0xC39 PUSH2 0xBF7 JUMP JUMPDEST PUSH1 0x40 MLOAD PUSH1 0x1F DUP4 ADD PUSH1 0x1F NOT SWAP1 DUP2 AND PUSH1 0x3F ADD AND DUP2 ADD SWAP1 DUP3 DUP3 GT DUP2 DUP4 LT OR ISZERO PUSH2 0xC61 JUMPI PUSH2 0xC61 PUSH2 0xBF7 JUMP JUMPDEST DUP2 PUSH1 0x40 MSTORE DUP4 DUP2 MSTORE DUP7 PUSH1 0x20 DUP6 DUP9 ADD ADD GT ISZERO PUSH2 0xC7A JUMPI PUSH1 0x0 DUP1 REVERT JUMPDEST DUP4 PUSH1 0x20 DUP8 ADD PUSH1 0x20 DUP4 ADD CALLDATACOPY PUSH1 0x0 PUSH1 0x20 DUP6 DUP4 ADD ADD MSTORE DUP1 SWAP5 POP POP POP POP POP SWAP3 SWAP2 POP POP JUMP JUMPDEST PUSH1 0x0 PUSH1 0x20 DUP3 DUP5 SUB SLT ISZERO PUSH2 0xCAC JUMPI PUSH1 0x0 DUP1 REVERT JUMPDEST DUP2 CALLDATALOAD PUSH8 0xFFFFFFFFFFFFFFFF DUP2 GT ISZERO PUSH2 0xCC3 JUMPI PUSH1 0x0 DUP1 REVERT JUMPDEST PUSH2 0xCCF DUP5 DUP3 DUP6 ADD PUSH2 0xC0D JUMP JUMPDEST SWAP5 SWAP4 POP POP POP POP JUMP JUMPDEST PUSH1 0x0 JUMPDEST DUP4 DUP2 LT ISZERO PUSH2 0xCF2 JUMPI DUP2 DUP2 ADD MLOAD DUP4 DUP3 ADD MSTORE PUSH1 0x20 ADD PUSH2 0xCDA JUMP JUMPDEST POP POP PUSH1 0x0 SWAP2 ADD MSTORE JUMP JUMPDEST PUSH1 0x0 DUP2 MLOAD DUP1 DUP5 MSTORE PUSH2 0xD13 DUP2 PUSH1 0x20 DUP7 ADD PUSH1 0x20 DUP7 ADD PUSH2 0xCD7 JUMP JUMPDEST PUSH1 0x1F ADD PUSH1 0x1F NOT AND SWAP3 SWAP1 SWAP3 ADD PUSH1 0x20 ADD SWAP3 SWAP2 POP POP JUMP JUMPDEST PUSH1 0x20 DUP2 MSTORE PUSH1 0x0 PUSH2 0xD3A PUSH1 0x20 DUP4 ADD DUP5 PUSH2 0xCFB JUMP JUMPDEST SWAP4 SWAP3 POP POP POP JUMP JUMPDEST PUSH1 0x0 DUP1 PUSH1 0x40 DUP4 DUP6 SUB SLT ISZERO PUSH2 0xD54 JUMPI PUSH1 0x0 DUP1 REVERT JUMPDEST DUP3 CALLDATALOAD PUSH8 0xFFFFFFFFFFFFFFFF DUP1 DUP3 GT ISZERO PUSH2 0xD6C JUMPI PUSH1 0x0 DUP1 REVERT JUMPDEST PUSH2 0xD78 DUP7 DUP4 DUP8 ADD PUSH2 0xC0D JUMP JUMPDEST SWAP4 POP PUSH1 0x20 DUP6 ADD CALLDATALOAD SWAP2 POP DUP1 DUP3 GT ISZERO PUSH2 0xD8E JUMPI PUSH1 0x0 DUP1 REVERT JUMPDEST POP PUSH2 0xD9B DUP6 DUP3 DUP7 ADD PUSH2 0xC0D JUMP JUMPDEST SWAP2 POP POP SWAP3 POP SWAP3 SWAP1 POP JUMP JUMPDEST DUP1 CALLDATALOAD PUSH1 0x1 PUSH1 0x1 PUSH1 0xA0 SHL SUB DUP2 AND DUP2 EQ PUSH2 0xDBC JUMPI PUSH1 0x0 DUP1 REVERT JUMPDEST SWAP2 SWAP1 POP JUMP JUMPDEST PUSH1 0x0 DUP1 PUSH1 0x0 DUP1 PUSH1 0x0 DUP1 PUSH1 0x0 DUP1 PUSH2 0x100 DUP10 DUP12 SUB SLT ISZERO PUSH2 0xDDE JUMPI PUSH1 0x0 DUP1 REVERT JUMPDEST DUP9 CALLDATALOAD PUSH8 0xFFFFFFFFFFFFFFFF DUP1 DUP3 GT ISZERO PUSH2 0xDF6 JUMPI PUSH1 0x0 DUP1 REVERT JUMPDEST PUSH2 0xE02 DUP13 DUP4 DUP14 ADD PUSH2 0xC0D JUMP JUMPDEST SWAP10 POP PUSH2 0xE10 PUSH1 0x20 DUP13 ADD PUSH2 0xDA5 JUMP JUMPDEST SWAP9 POP PUSH2 0xE1E PUSH1 0x40 DUP13 ADD PUSH2 0xDA5 JUMP JUMPDEST SWAP8 POP PUSH1 0x60 DUP12 ADD CALLDATALOAD SWAP7 POP PUSH1 0x80 DUP12 ADD CALLDATALOAD SWAP2 POP DUP1 DUP3 GT ISZERO PUSH2 0xE3B JUMPI PUSH1 0x0 DUP1 REVERT JUMPDEST PUSH2 0xE47 DUP13 DUP4 DUP14 ADD PUSH2 0xC0D JUMP JUMPDEST SWAP6 POP PUSH1 0xA0 DUP12 ADD CALLDATALOAD SWAP5 POP PUSH1 0xC0 DUP12 ADD CALLDATALOAD SWAP4 POP PUSH1 0xE0 DUP12 ADD CALLDATALOAD SWAP2 POP DUP1 DUP3 GT ISZERO PUSH2 0xE6B JUMPI PUSH1 0x0 DUP1 REVERT JUMPDEST POP PUSH2 0xE78 DUP12 DUP3 DUP13 ADD PUSH2 0xC0D JUMP JUMPDEST SWAP2 POP POP SWAP3 SWAP6 SWAP9 POP SWAP3 SWAP6 SWAP9 SWAP1 SWAP4 SWAP7 POP JUMP JUMPDEST PUSH1 0x0 DUP1 PUSH1 0x40 DUP4 DUP6 SUB SLT ISZERO PUSH2 0xE9B JUMPI PUSH1 0x0 DUP1 REVERT JUMPDEST DUP3 CALLDATALOAD PUSH8 0xFFFFFFFFFFFFFFFF DUP2 GT ISZERO PUSH2 0xEB2 JUMPI PUSH1 0x0 DUP1 REVERT JUMPDEST PUSH2 0xEBE DUP6 DUP3 DUP7 ADD PUSH2 0xC0D JUMP JUMPDEST SWAP3 POP POP PUSH2 0xECD PUSH1 0x20 DUP5 ADD PUSH2 0xDA5 JUMP JUMPDEST SWAP1 POP SWAP3 POP SWAP3 SWAP1 POP JUMP JUMPDEST PUSH1 0x0 DUP3 MLOAD PUSH2 0xEE8 DUP2 DUP5 PUSH1 0x20 DUP8 ADD PUSH2 0xCD7 JUMP JUMPDEST SWAP2 SWAP1 SWAP2 ADD SWAP3 SWAP2 POP POP JUMP JUMPDEST PUSH1 0x1 DUP2 DUP2 SHR SWAP1 DUP3 AND DUP1 PUSH2 0xF06 JUMPI PUSH1 0x7F DUP3 AND SWAP2 POP JUMPDEST PUSH1 0x20 DUP3 LT DUP2 SUB PUSH2 0xF26 JUMPI PUSH4 0x4E487B71 PUSH1 0xE0 SHL PUSH1 0x0 MSTORE PUSH1 0x22 PUSH1 0x4 MSTORE PUSH1 0x24 PUSH1 0x0 REVERT JUMPDEST POP SWAP2 SWAP1 POP JUMP JUMPDEST PUSH1 0x0 PUSH1 0x20 DUP3 DUP5 SUB SLT ISZERO PUSH2 0xF3E JUMPI PUSH1 0x0 DUP1 REVERT JUMPDEST DUP2 MLOAD DUP1 ISZERO ISZERO DUP2 EQ PUSH2 0xD3A JUMPI PUSH1 0x0 DUP1 REVERT JUMPDEST PUSH1 0x1F DUP3 GT ISZERO PUSH2 0xF98 JUMPI PUSH1 0x0 DUP2 DUP2 MSTORE PUSH1 0x20 DUP2 KECCAK256 PUSH1 0x1F DUP6 ADD PUSH1 0x5 SHR DUP2 ADD PUSH1 0x20 DUP7 LT ISZERO PUSH2 0xF75 JUMPI POP DUP1 JUMPDEST PUSH1 0x1F DUP6 ADD PUSH1 0x5 SHR DUP3 ADD SWAP2 POP JUMPDEST DUP2 DUP2 LT ISZERO PUSH2 0xF94 JUMPI DUP3 DUP2 SSTORE PUSH1 0x1 ADD PUSH2 0xF81 JUMP JUMPDEST POP POP POP JUMPDEST POP POP POP JUMP JUMPDEST DUP2 MLOAD PUSH8 0xFFFFFFFFFFFFFFFF DUP2 GT ISZERO PUSH2 0xFB7 JUMPI PUSH2 0xFB7 PUSH2 0xBF7 JUMP JUMPDEST PUSH2 0xFCB DUP2 PUSH2 0xFC5 DUP5 SLOAD PUSH2 0xEF2 JUMP JUMPDEST DUP5 PUSH2 0xF4E JUMP JUMPDEST PUSH1 0x20 DUP1 PUSH1 0x1F DUP4 GT PUSH1 0x1 DUP2 EQ PUSH2 0x1000 JUMPI PUSH1 0x0 DUP5 ISZERO PUSH2 0xFE8 JUMPI POP DUP6 DUP4 ADD MLOAD JUMPDEST PUSH1 0x0 NOT PUSH1 0x3 DUP7 SWAP1 SHL SHR NOT AND PUSH1 0x1 DUP6 SWAP1 SHL OR DUP6 SSTORE PUSH2 0xF94 JUMP JUMPDEST PUSH1 0x0 DUP6 DUP2 MSTORE PUSH1 0x20 DUP2 KECCAK256 PUSH1 0x1F NOT DUP7 AND SWAP2 JUMPDEST DUP3 DUP2 LT ISZERO PUSH2 0x102F JUMPI DUP9 DUP7 ADD MLOAD DUP3 SSTORE SWAP5 DUP5 ADD SWAP5 PUSH1 0x1 SWAP1 SWAP2 ADD SWAP1 DUP5 ADD PUSH2 0x1010 JUMP JUMPDEST POP DUP6 DUP3 LT ISZERO PUSH2 0x104D JUMPI DUP8 DUP6 ADD MLOAD PUSH1 0x0 NOT PUSH1 0x3 DUP9 SWAP1 SHL PUSH1 0xF8 AND SHR NOT AND DUP2 SSTORE JUMPDEST POP POP POP POP POP PUSH1 0x1 SWAP1 DUP2 SHL ADD SWAP1 SSTORE POP JUMP JUMPDEST PUSH4 0x4E487B71 PUSH1 0xE0 SHL PUSH1 0x0 MSTORE PUSH1 0x11 PUSH1 0x4 MSTORE PUSH1 0x24 PUSH1 0x0 REVERT JUMPDEST DUP1 DUP3 MUL DUP2 ISZERO DUP3 DUP3 DIV DUP5 EQ OR PUSH2 0x108A JUMPI PUSH2 0x108A PUSH2 0x105D JUMP JUMPDEST SWAP3 SWAP2 POP POP JUMP JUMPDEST DUP1 DUP3 ADD DUP1 DUP3 GT ISZERO PUSH2 0x108A JUMPI PUSH2 0x108A PUSH2 0x105D JUMP JUMPDEST PUSH1 0x1 PUSH1 0x1 PUSH1 0xA0 SHL SUB DUP5 AND DUP2 MSTORE DUP3 PUSH1 0x20 DUP3 ADD MSTORE PUSH1 0x60 PUSH1 0x40 DUP3 ADD MSTORE PUSH1 0x0 PUSH2 0x10CB PUSH1 0x60 DUP4 ADD DUP5 PUSH2 0xCFB JUMP JUMPDEST SWAP6 SWAP5 POP POP POP POP POP JUMP INVALID LOG2 PUSH5 0x6970667358 0x22 SLT KECCAK256 0xAC 0x1E PUSH24 0xA8AB674E768D96B129166C795E8469527C285593D202DBDD SHL 0xE5 0xED 0xD8 PUSH13 0x64736F6C634300081100330000 "},"methodIdentifiers":{"acceptFor(string,address)":"f878631e","createTx(string,address,address,uint256,string,bytes32,uint256,bytes)":"6ea48ef2","getSecretKey(string)":"02db2713","refund(string)":"fe5f2e88","withDraw(string,string)":"3a4e0be8"}}}}}