{
  "_format": "hh-sol-artifact-1",
  "contractName": "HTLC",
  "sourceName": "contracts/HTLC.sol",
  "abi": [
    {
      "inputs": [],
      "stateMutability": "nonpayable",
      "type": "constructor"
    },
    {
      "anonymous": false,
      "inputs": [
        {
          "indexed": false,
          "internalType": "address",
          "name": "from",
          "type": "address"
        },
        {
          "indexed": false,
          "internalType": "uint256",
          "name": "amount",
          "type": "uint256"
        }
      ],
      "name": "canceled",
      "type": "event"
    },
    {
      "anonymous": false,
      "inputs": [
        {
          "indexed": false,
          "internalType": "address",
          "name": "from",
          "type": "address"
        },
        {
          "indexed": false,
          "internalType": "uint256",
          "name": "amount",
          "type": "uint256"
        }
      ],
      "name": "withdrawn",
      "type": "event"
    },
    {
      "inputs": [
        {
          "internalType": "string",
          "name": "txId",
          "type": "string"
        },
        {
          "internalType": "address",
          "name": "receiver",
          "type": "address"
        }
      ],
      "name": "acceptFor",
      "outputs": [],
      "stateMutability": "nonpayable",
      "type": "function"
    },
    {
      "inputs": [
        {
          "internalType": "string",
          "name": "id",
          "type": "string"
        },
        {
          "internalType": "address",
          "name": "receiver",
          "type": "address"
        },
        {
          "internalType": "address",
          "name": "token",
          "type": "address"
        },
        {
          "internalType": "uint256",
          "name": "amount",
          "type": "uint256"
        },
        {
          "internalType": "string",
          "name": "key",
          "type": "string"
        },
        {
          "internalType": "bytes32",
          "name": "hashlock",
          "type": "bytes32"
        },
        {
          "internalType": "uint256",
          "name": "timelock",
          "type": "uint256"
        },
        {
          "internalType": "bytes",
          "name": "signature",
          "type": "bytes"
        }
      ],
      "name": "createTx",
      "outputs": [
        {
          "internalType": "bool",
          "name": "",
          "type": "bool"
        }
      ],
      "stateMutability": "nonpayable",
      "type": "function"
    },
    {
      "inputs": [
        {
          "internalType": "string",
          "name": "txId",
          "type": "string"
        }
      ],
      "name": "getSecretKey",
      "outputs": [
        {
          "internalType": "string",
          "name": "",
          "type": "string"
        }
      ],
      "stateMutability": "view",
      "type": "function"
    },
    {
      "inputs": [
        {
          "internalType": "string",
          "name": "txId",
          "type": "string"
        }
      ],
      "name": "refund",
      "outputs": [],
      "stateMutability": "nonpayable",
      "type": "function"
    },
    {
      "inputs": [
        {
          "internalType": "string",
          "name": "txId",
          "type": "string"
        },
        {
          "internalType": "string",
          "name": "_key",
          "type": "string"
        }
      ],
      "name": "withDraw",
      "outputs": [],
      "stateMutability": "nonpayable",
      "type": "function"
    }
  ],
  "bytecode": "0x608060405234801561001057600080fd5b5061110a806100206000396000f3fe608060405234801561001057600080fd5b50600436106100675760003560e01c80636ea48ef2116100505780636ea48ef2146100aa578063f878631e146100cd578063fe5f2e88146100e057600080fd5b806302db27131461006c5780633a4e0be814610095575b600080fd5b61007f61007a366004610c9a565b6100f3565b60405161008c9190610d27565b60405180910390f35b6100a86100a3366004610d41565b6102d2565b005b6100bd6100b8366004610dc1565b610570565b604051901515815260200161008c565b6100a86100db366004610e88565b610864565b6100a86100ee366004610c9a565b6109d9565b606060006001600160a01b03166000836040516101109190610ed6565b908152604051908190036020019020546001600160a01b03160361017b5760405162461bcd60e51b815260206004820152601f60248201527f54686973207472616e73616374696f6e20646f65736e2774206578697374730060448201526064015b60405180910390fd5b336001600160a01b03166000836040516101959190610ed6565b908152604051908190036020019020546001600160a01b0316146102215760405162461bcd60e51b815260206004820152602160248201527f4f6e6c79206f776e65722063616e206765742074686520736563726574206b6560448201527f79000000000000000000000000000000000000000000000000000000000000006064820152608401610172565b6000826040516102319190610ed6565b9081526020016040518091039020600401805461024d90610ef2565b80601f016020809104026020016040519081016040528092919081815260200182805461027990610ef2565b80156102c65780601f1061029b576101008083540402835291602001916102c6565b820191906000526020600020905b8154815290600101906020018083116102a957829003601f168201915b50505050509050919050565b600080836040516102e39190610ed6565b908152604051908190036020019020600781015490915060ff61010090910416156103505760405162461bcd60e51b815260206004820152601d60248201527f5472616e73616374696f6e20686173206265656e2063616e63656c65640000006044820152606401610172565b600781015460ff16156103a55760405162461bcd60e51b815260206004820152601e60248201527f5472616e73616374696f6e20686173206265656e2077697468647261776e00006044820152606401610172565b60018101546001600160a01b031633146104015760405162461bcd60e51b815260206004820152601a60248201527f4f6e6c792072656365697665722063616e2077697468647261770000000000006044820152606401610172565b8060050154826040516020016104179190610ed6565b604051602081830303815290604052805190602001201461047a5760405162461bcd60e51b815260206004820152600d60248201527f496e636f7272656374206b6579000000000000000000000000000000000000006044820152606401610172565b60028101546001820154600383015460405163a9059cbb60e01b81526001600160a01b039283166004820152602481019190915291169063a9059cbb906044016020604051808303816000875af11580156104d9573d6000803e3d6000fd5b505050506040513d601f19601f820116820180604052508101906104fd9190610f2c565b506004810161050c8382610f9d565b5060078101805460ff191660019081179091558101546003820154604080516001600160a01b03909316835260208301919091527f6fb24f3ad0678f9d138e80b17293be051d87911eb34e9e60f0d1b9c3805e885a910160405180910390a1505050565b6000806001600160a01b031660008a60405161058c9190610ed6565b908152604051908190036020019020546001600160a01b0316146105f25760405162461bcd60e51b815260206004820152601b60248201527f4475706c6963617465207472616e73616374696f6e20627920696400000000006044820152606401610172565b6001600160a01b038816330361064a5760405162461bcd60e51b815260206004820152601460248201527f545472616e73616374696f6e20696e76616c69640000000000000000000000006044820152606401610172565b604051806101400160405280336001600160a01b03168152602001896001600160a01b03168152602001886001600160a01b0316815260200187815260200186815260200185815260200184610e106106a39190611073565b6106ad9042611090565b81526000602082018190526040808301829052606090920181905290516106d5908c90610ed6565b90815260408051602092819003830190208351815473ffffffffffffffffffffffffffffffffffffffff199081166001600160a01b0392831617835593850151600183018054861691831691909117905591840151600282018054909416921691909117909155606082015160038201556080820151600482019061075a9082610f9d565b5060a0820151600582015560c0820151600682015560e082015160079091018054610100808501516101209095015161ffff1990921693151561ff001916939093179315159092029290921762ff0000191662010000911515919091021790556040516000906107cb908b90610ed6565b908152604051908190036020018120600201547fdf8ab3300000000000000000000000000000000000000000000000000000000082526001600160a01b03169063df8ab330906108239033908a9087906004016110a3565b600060405180830381600087803b15801561083d57600080fd5b505af1158015610851573d6000803e3d6000fd5b5060019c9b505050505050505050505050565b6001600160a01b03811633036108bc5760405162461bcd60e51b815260206004820152601860248201527f43616e27742061636365707420627920796f757273656c6600000000000000006044820152606401610172565b600080836040516108cd9190610ed6565b90815260405190819003602001902080549091506001600160a01b031633146109385760405162461bcd60e51b815260206004820152601f60248201527f4f6e6c79206f776e65722063616e206772616e74207065726d697373696f6e006044820152606401610172565b60018101546001600160a01b0316156109935760405162461bcd60e51b815260206004820152601d60248201527f5472616e73616374696f6e20686173206265656e2061636365707465640000006044820152606401610172565b6001810180546001600160a01b0390931673ffffffffffffffffffffffffffffffffffffffff1990931692909217909155600701805462ff000019166201000017905550565b600080826040516109ea9190610ed6565b908152604051908190036020019020600781015490915060ff16158015610a1b57506007810154610100900460ff16155b610a675760405162461bcd60e51b815260206004820152600c60248201527f43616e277420726566756e6400000000000000000000000000000000000000006044820152606401610172565b600781015462010000900460ff1615610ac25760405162461bcd60e51b815260206004820152601a60248201527f5472616e73616374696f6e20697320696e2070726f67726573730000000000006044820152606401610172565b4281600601541115610b165760405162461bcd60e51b815260206004820152601360248201527f546f6f206561726c7920746f20726566756e64000000000000000000000000006044820152606401610172565b60028101548154600383015460405163a9059cbb60e01b81526001600160a01b039283166004820152602481019190915291169063a9059cbb906044016020604051808303816000875af1158015610b72573d6000803e3d6000fd5b505050506040513d601f19601f82011682018060405250810190610b969190610f2c565b5060078101805461ff00191661010017905580546003820154604080516001600160a01b03909316835260208301919091527fb0fff5d2b17a855b0a22a0965386bcf2f7a8a364c81497c7ea721f3b771ba47e910160405180910390a15050565b634e487b7160e01b600052604160045260246000fd5b600082601f830112610c1e57600080fd5b813567ffffffffffffffff80821115610c3957610c39610bf7565b604051601f8301601f19908116603f01168101908282118183101715610c6157610c61610bf7565b81604052838152866020858801011115610c7a57600080fd5b836020870160208301376000602085830101528094505050505092915050565b600060208284031215610cac57600080fd5b813567ffffffffffffffff811115610cc357600080fd5b610ccf84828501610c0d565b949350505050565b60005b83811015610cf2578181015183820152602001610cda565b50506000910152565b60008151808452610d13816020860160208601610cd7565b601f01601f19169290920160200192915050565b602081526000610d3a6020830184610cfb565b9392505050565b60008060408385031215610d5457600080fd5b823567ffffffffffffffff80821115610d6c57600080fd5b610d7886838701610c0d565b93506020850135915080821115610d8e57600080fd5b50610d9b85828601610c0d565b9150509250929050565b80356001600160a01b0381168114610dbc57600080fd5b919050565b600080600080600080600080610100898b031215610dde57600080fd5b883567ffffffffffffffff80821115610df657600080fd5b610e028c838d01610c0d565b9950610e1060208c01610da5565b9850610e1e60408c01610da5565b975060608b0135965060808b0135915080821115610e3b57600080fd5b610e478c838d01610c0d565b955060a08b0135945060c08b0135935060e08b0135915080821115610e6b57600080fd5b50610e788b828c01610c0d565b9150509295985092959890939650565b60008060408385031215610e9b57600080fd5b823567ffffffffffffffff811115610eb257600080fd5b610ebe85828601610c0d565b925050610ecd60208401610da5565b90509250929050565b60008251610ee8818460208701610cd7565b9190910192915050565b600181811c90821680610f0657607f821691505b602082108103610f2657634e487b7160e01b600052602260045260246000fd5b50919050565b600060208284031215610f3e57600080fd5b81518015158114610d3a57600080fd5b601f821115610f9857600081815260208120601f850160051c81016020861015610f755750805b601f850160051c820191505b81811015610f9457828155600101610f81565b5050505b505050565b815167ffffffffffffffff811115610fb757610fb7610bf7565b610fcb81610fc58454610ef2565b84610f4e565b602080601f8311600181146110005760008415610fe85750858301515b600019600386901b1c1916600185901b178555610f94565b600085815260208120601f198616915b8281101561102f57888601518255948401946001909101908401611010565b508582101561104d5787850151600019600388901b60f8161c191681555b5050505050600190811b01905550565b634e487b7160e01b600052601160045260246000fd5b808202811582820484141761108a5761108a61105d565b92915050565b8082018082111561108a5761108a61105d565b6001600160a01b03841681528260208201526060604082015260006110cb6060830184610cfb565b9594505050505056fea26469706673582212208f5d2103df7b821e82443b846bac6b6651e9e3599c8089409a5d3262f4c25b0c64736f6c63430008110033",
  "linkReferences": {},
  "deployedLinkReferences": {}
}