{
  "_format": "hh-sol-artifact-1",
  "contractName": "HTLC",
  "sourceName": "contracts/HTLC.sol",
  "abi": [
    {
      "inputs": [],
      "stateMutability": "nonpayable",
      "type": "constructor"
    },
    {
      "anonymous": false,
      "inputs": [
        {
          "indexed": false,
          "internalType": "address",
          "name": "from",
          "type": "address"
        },
        {
          "indexed": false,
          "internalType": "uint256",
          "name": "amount",
          "type": "uint256"
        }
      ],
      "name": "canceled",
      "type": "event"
    },
    {
      "anonymous": false,
      "inputs": [
        {
          "indexed": false,
          "internalType": "address",
          "name": "from",
          "type": "address"
        },
        {
          "indexed": false,
          "internalType": "uint256",
          "name": "amount",
          "type": "uint256"
        }
      ],
      "name": "withdrawn",
      "type": "event"
    },
    {
      "inputs": [
        {
          "internalType": "string",
          "name": "txId",
          "type": "string"
        },
        {
          "internalType": "address",
          "name": "receiver",
          "type": "address"
        }
      ],
      "name": "acceptFor",
      "outputs": [],
      "stateMutability": "nonpayable",
      "type": "function"
    },
    {
      "inputs": [
        {
          "internalType": "string",
          "name": "id",
          "type": "string"
        },
        {
          "internalType": "address",
          "name": "receiver",
          "type": "address"
        },
        {
          "internalType": "address",
          "name": "token",
          "type": "address"
        },
        {
          "internalType": "uint256",
          "name": "amount",
          "type": "uint256"
        },
        {
          "internalType": "string",
          "name": "key",
          "type": "string"
        },
        {
          "internalType": "bytes32",
          "name": "hashlock",
          "type": "bytes32"
        },
        {
          "internalType": "uint256",
          "name": "timelock",
          "type": "uint256"
        }
      ],
      "name": "createTx",
      "outputs": [
        {
          "internalType": "bool",
          "name": "",
          "type": "bool"
        }
      ],
      "stateMutability": "nonpayable",
      "type": "function"
    },
    {
      "inputs": [
        {
          "internalType": "string",
          "name": "txId",
          "type": "string"
        }
      ],
      "name": "getSecretKey",
      "outputs": [
        {
          "internalType": "string",
          "name": "",
          "type": "string"
        }
      ],
      "stateMutability": "view",
      "type": "function"
    },
    {
      "inputs": [
        {
          "internalType": "string",
          "name": "txId",
          "type": "string"
        }
      ],
      "name": "refund",
      "outputs": [],
      "stateMutability": "nonpayable",
      "type": "function"
    },
    {
      "inputs": [
        {
          "internalType": "string",
          "name": "txId",
          "type": "string"
        },
        {
          "internalType": "string",
          "name": "_key",
          "type": "string"
        }
      ],
      "name": "withDraw",
      "outputs": [],
      "stateMutability": "nonpayable",
      "type": "function"
    }
  ],
  "bytecode": "0x608060405234801561001057600080fd5b506110a5806100206000396000f3fe608060405234801561001057600080fd5b50600436106100675760003560e01c8063f878631e11610050578063f878631e146100aa578063fe5f2e88146100bd578063fea68273146100d057600080fd5b806302db27131461006c5780633a4e0be814610095575b600080fd5b61007f61007a366004610c97565b6100f3565b60405161008c9190610cf8565b60405180910390f35b6100a86100a3366004610d2b565b6102d2565b005b6100a86100b8366004610dab565b610570565b6100a86100cb366004610c97565b6106e5565b6100e36100de366004610df9565b610903565b604051901515815260200161008c565b606060006001600160a01b03166000836040516101109190610e9b565b908152604051908190036020019020546001600160a01b03160361017b5760405162461bcd60e51b815260206004820152601f60248201527f54686973207472616e73616374696f6e20646f65736e2774206578697374730060448201526064015b60405180910390fd5b336001600160a01b03166000836040516101959190610e9b565b908152604051908190036020019020546001600160a01b0316146102215760405162461bcd60e51b815260206004820152602160248201527f4f6e6c79206f776e65722063616e206765742074686520736563726574206b6560448201527f79000000000000000000000000000000000000000000000000000000000000006064820152608401610172565b6000826040516102319190610e9b565b9081526020016040518091039020600401805461024d90610eb7565b80601f016020809104026020016040519081016040528092919081815260200182805461027990610eb7565b80156102c65780601f1061029b576101008083540402835291602001916102c6565b820191906000526020600020905b8154815290600101906020018083116102a957829003601f168201915b50505050509050919050565b600080836040516102e39190610e9b565b908152604051908190036020019020600781015490915060ff61010090910416156103505760405162461bcd60e51b815260206004820152601d60248201527f5472616e73616374696f6e20686173206265656e2063616e63656c65640000006044820152606401610172565b600781015460ff16156103a55760405162461bcd60e51b815260206004820152601e60248201527f5472616e73616374696f6e20686173206265656e2077697468647261776e00006044820152606401610172565b60018101546001600160a01b031633146104015760405162461bcd60e51b815260206004820152601a60248201527f4f6e6c792072656365697665722063616e2077697468647261770000000000006044820152606401610172565b8060050154826040516020016104179190610e9b565b604051602081830303815290604052805190602001201461047a5760405162461bcd60e51b815260206004820152600d60248201527f496e636f7272656374206b6579000000000000000000000000000000000000006044820152606401610172565b60028101546001820154600383015460405163a9059cbb60e01b81526001600160a01b039283166004820152602481019190915291169063a9059cbb906044016020604051808303816000875af11580156104d9573d6000803e3d6000fd5b505050506040513d601f19601f820116820180604052508101906104fd9190610ef1565b506004810161050c8382610f69565b5060078101805460ff191660019081179091558101546003820154604080516001600160a01b03909316835260208301919091527f6fb24f3ad0678f9d138e80b17293be051d87911eb34e9e60f0d1b9c3805e885a910160405180910390a1505050565b6001600160a01b03811633036105c85760405162461bcd60e51b815260206004820152601860248201527f43616e27742061636365707420627920796f757273656c6600000000000000006044820152606401610172565b600080836040516105d99190610e9b565b90815260405190819003602001902080549091506001600160a01b031633146106445760405162461bcd60e51b815260206004820152601f60248201527f4f6e6c79206f776e65722063616e206772616e74207065726d697373696f6e006044820152606401610172565b60018101546001600160a01b03161561069f5760405162461bcd60e51b815260206004820152601d60248201527f5472616e73616374696f6e20686173206265656e2061636365707465640000006044820152606401610172565b6001810180546001600160a01b0390931673ffffffffffffffffffffffffffffffffffffffff1990931692909217909155600701805462ff000019166201000017905550565b600080826040516106f69190610e9b565b908152604051908190036020019020600781015490915060ff1615801561072757506007810154610100900460ff16155b6107735760405162461bcd60e51b815260206004820152600c60248201527f43616e277420726566756e6400000000000000000000000000000000000000006044820152606401610172565b600781015462010000900460ff16156107ce5760405162461bcd60e51b815260206004820152601a60248201527f5472616e73616374696f6e20697320696e2070726f67726573730000000000006044820152606401610172565b42816006015411156108225760405162461bcd60e51b815260206004820152601360248201527f546f6f206561726c7920746f20726566756e64000000000000000000000000006044820152606401610172565b60028101548154600383015460405163a9059cbb60e01b81526001600160a01b039283166004820152602481019190915291169063a9059cbb906044016020604051808303816000875af115801561087e573d6000803e3d6000fd5b505050506040513d601f19601f820116820180604052508101906108a29190610ef1565b5060078101805461ff00191661010017905580546003820154604080516001600160a01b03909316835260208301919091527fb0fff5d2b17a855b0a22a0965386bcf2f7a8a364c81497c7ea721f3b771ba47e910160405180910390a15050565b6000806001600160a01b031660008960405161091f9190610e9b565b908152604051908190036020019020546001600160a01b0316146109855760405162461bcd60e51b815260206004820152601b60248201527f4475706c6963617465207472616e73616374696f6e20627920696400000000006044820152606401610172565b6001600160a01b03871633036109dd5760405162461bcd60e51b815260206004820152601460248201527f545472616e73616374696f6e20696e76616c69640000000000000000000000006044820152606401610172565b604051806101400160405280336001600160a01b03168152602001886001600160a01b03168152602001876001600160a01b0316815260200186815260200185815260200184815260200183610e10610a36919061103f565b610a40904261105c565b8152600060208201819052604080830182905260609092018190529051610a68908b90610e9b565b90815260408051602092819003830190208351815473ffffffffffffffffffffffffffffffffffffffff199081166001600160a01b03928316178355938501516001830180548616918316919091179055918401516002820180549094169216919091179091556060820151600382015560808201516004820190610aed9082610f69565b5060a0820151600582015560c0820151600682015560e082015160079091018054610100808501516101209095015161ffff1990921693151561ff001916939093179315159092029290921762ff000019166201000091151591909102179055604051600090610b5e908a90610e9b565b908152604051908190036020018120600201547f1a814227000000000000000000000000000000000000000000000000000000008252336004830152602482018790526001600160a01b031690631a81422790604401600060405180830381600087803b158015610bce57600080fd5b505af1158015610be2573d6000803e3d6000fd5b5060019b9a5050505050505050505050565b634e487b7160e01b600052604160045260246000fd5b600082601f830112610c1b57600080fd5b813567ffffffffffffffff80821115610c3657610c36610bf4565b604051601f8301601f19908116603f01168101908282118183101715610c5e57610c5e610bf4565b81604052838152866020858801011115610c7757600080fd5b836020870160208301376000602085830101528094505050505092915050565b600060208284031215610ca957600080fd5b813567ffffffffffffffff811115610cc057600080fd5b610ccc84828501610c0a565b949350505050565b60005b83811015610cef578181015183820152602001610cd7565b50506000910152565b6020815260008251806020840152610d17816040850160208701610cd4565b601f01601f19169190910160400192915050565b60008060408385031215610d3e57600080fd5b823567ffffffffffffffff80821115610d5657600080fd5b610d6286838701610c0a565b93506020850135915080821115610d7857600080fd5b50610d8585828601610c0a565b9150509250929050565b80356001600160a01b0381168114610da657600080fd5b919050565b60008060408385031215610dbe57600080fd5b823567ffffffffffffffff811115610dd557600080fd5b610de185828601610c0a565b925050610df060208401610d8f565b90509250929050565b600080600080600080600060e0888a031215610e1457600080fd5b873567ffffffffffffffff80821115610e2c57600080fd5b610e388b838c01610c0a565b9850610e4660208b01610d8f565b9750610e5460408b01610d8f565b965060608a0135955060808a0135915080821115610e7157600080fd5b50610e7e8a828b01610c0a565b93505060a0880135915060c0880135905092959891949750929550565b60008251610ead818460208701610cd4565b9190910192915050565b600181811c90821680610ecb57607f821691505b602082108103610eeb57634e487b7160e01b600052602260045260246000fd5b50919050565b600060208284031215610f0357600080fd5b81518015158114610f1357600080fd5b9392505050565b601f821115610f6457600081815260208120601f850160051c81016020861015610f415750805b601f850160051c820191505b81811015610f6057828155600101610f4d565b5050505b505050565b815167ffffffffffffffff811115610f8357610f83610bf4565b610f9781610f918454610eb7565b84610f1a565b602080601f831160018114610fcc5760008415610fb45750858301515b600019600386901b1c1916600185901b178555610f60565b600085815260208120601f198616915b82811015610ffb57888601518255948401946001909101908401610fdc565b50858210156110195787850151600019600388901b60f8161c191681555b5050505050600190811b01905550565b634e487b7160e01b600052601160045260246000fd5b808202811582820484141761105657611056611029565b92915050565b808201808211156110565761105661102956fea26469706673582212209c1a6f52210d4223a9567ad7ce8c737c5c0ba682a3d03b71e37ad02f4d8083be64736f6c63430008110033",
  "linkReferences": {},
  "deployedLinkReferences": {}
}