{
  "_format": "hh-sol-artifact-1",
  "contractName": "Collection",
  "sourceName": "contracts/Collection.sol",
  "abi": [
    {
      "inputs": [
        {
          "internalType": "address",
          "name": "enterprise_",
          "type": "address"
        }
      ],
      "stateMutability": "nonpayable",
      "type": "constructor"
    },
    {
      "anonymous": false,
      "inputs": [
        {
          "indexed": true,
          "internalType": "address",
          "name": "owner",
          "type": "address"
        },
        {
          "indexed": true,
          "internalType": "address",
          "name": "approved",
          "type": "address"
        },
        {
          "indexed": true,
          "internalType": "uint256",
          "name": "tokenId",
          "type": "uint256"
        }
      ],
      "name": "Approval",
      "type": "event"
    },
    {
      "anonymous": false,
      "inputs": [
        {
          "indexed": true,
          "internalType": "address",
          "name": "owner",
          "type": "address"
        },
        {
          "indexed": true,
          "internalType": "address",
          "name": "operator",
          "type": "address"
        },
        {
          "indexed": false,
          "internalType": "bool",
          "name": "approved",
          "type": "bool"
        }
      ],
      "name": "ApprovalForAll",
      "type": "event"
    },
    {
      "anonymous": false,
      "inputs": [
        {
          "indexed": false,
          "internalType": "uint256",
          "name": "_fromTokenId",
          "type": "uint256"
        },
        {
          "indexed": false,
          "internalType": "uint256",
          "name": "_toTokenId",
          "type": "uint256"
        }
      ],
      "name": "BatchMetadataUpdate",
      "type": "event"
    },
    {
      "anonymous": false,
      "inputs": [
        {
          "indexed": false,
          "internalType": "uint256",
          "name": "_tokenId",
          "type": "uint256"
        }
      ],
      "name": "MetadataUpdate",
      "type": "event"
    },
    {
      "anonymous": false,
      "inputs": [
        {
          "indexed": true,
          "internalType": "address",
          "name": "previousOwner",
          "type": "address"
        },
        {
          "indexed": true,
          "internalType": "address",
          "name": "newOwner",
          "type": "address"
        }
      ],
      "name": "OwnershipTransferred",
      "type": "event"
    },
    {
      "anonymous": false,
      "inputs": [
        {
          "indexed": true,
          "internalType": "address",
          "name": "from",
          "type": "address"
        },
        {
          "indexed": true,
          "internalType": "address",
          "name": "to",
          "type": "address"
        },
        {
          "indexed": true,
          "internalType": "uint256",
          "name": "tokenId",
          "type": "uint256"
        }
      ],
      "name": "Transfer",
      "type": "event"
    },
    {
      "inputs": [
        {
          "internalType": "address",
          "name": "to",
          "type": "address"
        },
        {
          "internalType": "uint256",
          "name": "tokenId",
          "type": "uint256"
        }
      ],
      "name": "approve",
      "outputs": [],
      "stateMutability": "nonpayable",
      "type": "function"
    },
    {
      "inputs": [
        {
          "internalType": "address",
          "name": "owner",
          "type": "address"
        }
      ],
      "name": "balanceOf",
      "outputs": [
        {
          "internalType": "uint256",
          "name": "",
          "type": "uint256"
        }
      ],
      "stateMutability": "view",
      "type": "function"
    },
    {
      "inputs": [],
      "name": "enterprise",
      "outputs": [
        {
          "internalType": "contract Token",
          "name": "",
          "type": "address"
        }
      ],
      "stateMutability": "view",
      "type": "function"
    },
    {
      "inputs": [
        {
          "internalType": "uint256",
          "name": "tokenId",
          "type": "uint256"
        }
      ],
      "name": "getApproved",
      "outputs": [
        {
          "internalType": "address",
          "name": "",
          "type": "address"
        }
      ],
      "stateMutability": "view",
      "type": "function"
    },
    {
      "inputs": [
        {
          "internalType": "address",
          "name": "owner",
          "type": "address"
        },
        {
          "internalType": "address",
          "name": "operator",
          "type": "address"
        }
      ],
      "name": "isApprovedForAll",
      "outputs": [
        {
          "internalType": "bool",
          "name": "",
          "type": "bool"
        }
      ],
      "stateMutability": "view",
      "type": "function"
    },
    {
      "inputs": [
        {
          "internalType": "uint256",
          "name": "_tokenId",
          "type": "uint256"
        },
        {
          "internalType": "string",
          "name": "_uri",
          "type": "string"
        }
      ],
      "name": "mint",
      "outputs": [],
      "stateMutability": "nonpayable",
      "type": "function"
    },
    {
      "inputs": [],
      "name": "name",
      "outputs": [
        {
          "internalType": "string",
          "name": "",
          "type": "string"
        }
      ],
      "stateMutability": "view",
      "type": "function"
    },
    {
      "inputs": [],
      "name": "owner",
      "outputs": [
        {
          "internalType": "address",
          "name": "",
          "type": "address"
        }
      ],
      "stateMutability": "view",
      "type": "function"
    },
    {
      "inputs": [
        {
          "internalType": "uint256",
          "name": "tokenId",
          "type": "uint256"
        }
      ],
      "name": "ownerOf",
      "outputs": [
        {
          "internalType": "address",
          "name": "",
          "type": "address"
        }
      ],
      "stateMutability": "view",
      "type": "function"
    },
    {
      "inputs": [],
      "name": "renounceOwnership",
      "outputs": [],
      "stateMutability": "nonpayable",
      "type": "function"
    },
    {
      "inputs": [
        {
          "internalType": "address",
          "name": "from",
          "type": "address"
        },
        {
          "internalType": "address",
          "name": "to",
          "type": "address"
        },
        {
          "internalType": "uint256",
          "name": "tokenId",
          "type": "uint256"
        }
      ],
      "name": "safeTransferFrom",
      "outputs": [],
      "stateMutability": "nonpayable",
      "type": "function"
    },
    {
      "inputs": [
        {
          "internalType": "address",
          "name": "from",
          "type": "address"
        },
        {
          "internalType": "address",
          "name": "to",
          "type": "address"
        },
        {
          "internalType": "uint256",
          "name": "tokenId",
          "type": "uint256"
        },
        {
          "internalType": "bytes",
          "name": "data",
          "type": "bytes"
        }
      ],
      "name": "safeTransferFrom",
      "outputs": [],
      "stateMutability": "nonpayable",
      "type": "function"
    },
    {
      "inputs": [
        {
          "internalType": "address",
          "name": "operator",
          "type": "address"
        },
        {
          "internalType": "bool",
          "name": "approved",
          "type": "bool"
        }
      ],
      "name": "setApprovalForAll",
      "outputs": [],
      "stateMutability": "nonpayable",
      "type": "function"
    },
    {
      "inputs": [
        {
          "internalType": "bytes4",
          "name": "interfaceId",
          "type": "bytes4"
        }
      ],
      "name": "supportsInterface",
      "outputs": [
        {
          "internalType": "bool",
          "name": "",
          "type": "bool"
        }
      ],
      "stateMutability": "view",
      "type": "function"
    },
    {
      "inputs": [],
      "name": "symbol",
      "outputs": [
        {
          "internalType": "string",
          "name": "",
          "type": "string"
        }
      ],
      "stateMutability": "view",
      "type": "function"
    },
    {
      "inputs": [
        {
          "internalType": "uint256",
          "name": "tokenId",
          "type": "uint256"
        }
      ],
      "name": "tokenURI",
      "outputs": [
        {
          "internalType": "string",
          "name": "",
          "type": "string"
        }
      ],
      "stateMutability": "view",
      "type": "function"
    },
    {
      "inputs": [
        {
          "internalType": "address",
          "name": "from",
          "type": "address"
        },
        {
          "internalType": "address",
          "name": "to",
          "type": "address"
        },
        {
          "internalType": "uint256",
          "name": "tokenId",
          "type": "uint256"
        }
      ],
      "name": "transferFrom",
      "outputs": [],
      "stateMutability": "nonpayable",
      "type": "function"
    },
    {
      "inputs": [
        {
          "internalType": "address",
          "name": "newOwner",
          "type": "address"
        }
      ],
      "name": "transferOwnership",
      "outputs": [],
      "stateMutability": "nonpayable",
      "type": "function"
    }
  ],
  "bytecode": "0x60806040523480156200001157600080fd5b5060405162001f9c38038062001f9c8339810160408190526200003491620001bc565b806001600160a01b03166306fdde036040518163ffffffff1660e01b8152600401600060405180830381865afa15801562000073573d6000803e3d6000fd5b505050506040513d6000823e601f3d908101601f191682016040526200009d919081019062000204565b816001600160a01b03166395d89b416040518163ffffffff1660e01b8152600401600060405180830381865afa158015620000dc573d6000803e3d6000fd5b505050506040513d6000823e601f3d908101601f1916820160405262000106919081019062000204565b600062000114838262000368565b50600162000123828262000368565b505050620001406200013a6200016660201b60201c565b6200016a565b600880546001600160a01b0319166001600160a01b039290921691909117905562000434565b3390565b600780546001600160a01b038381166001600160a01b0319831681179093556040519116919082907f8be0079c531659141344cd1fd0a4f28419497f9722a3daafe3b4186f6b6457e090600090a35050565b600060208284031215620001cf57600080fd5b81516001600160a01b0381168114620001e757600080fd5b9392505050565b634e487b7160e01b600052604160045260246000fd5b600060208083850312156200021857600080fd5b82516001600160401b03808211156200023057600080fd5b818501915085601f8301126200024557600080fd5b8151818111156200025a576200025a620001ee565b604051601f8201601f19908116603f01168101908382118183101715620002855762000285620001ee565b8160405282815288868487010111156200029e57600080fd5b600093505b82841015620002c25784840186015181850187015292850192620002a3565b600086848301015280965050505050505092915050565b600181811c90821680620002ee57607f821691505b6020821081036200030f57634e487b7160e01b600052602260045260246000fd5b50919050565b601f8211156200036357600081815260208120601f850160051c810160208610156200033e5750805b601f850160051c820191505b818110156200035f578281556001016200034a565b5050505b505050565b81516001600160401b03811115620003845762000384620001ee565b6200039c81620003958454620002d9565b8462000315565b602080601f831160018114620003d45760008415620003bb5750858301515b600019600386901b1c1916600185901b1785556200035f565b600085815260208120601f198616915b828110156200040557888601518255948401946001909101908401620003e4565b5085821015620004245787850151600019600388901b60f8161c191681555b5050505050600190811b01905550565b611b5880620004446000396000f3fe608060405234801561001057600080fd5b50600436106101365760003560e01c806377097fc8116100b2578063a22cb46511610081578063c87b56dd11610066578063c87b56dd1461027f578063e985e9c514610292578063f2fde38b146102ce57600080fd5b8063a22cb46514610259578063b88d4fde1461026c57600080fd5b806377097fc81461021a5780638da5cb5b1461022d5780639478a8c01461023e57806395d89b411461025157600080fd5b806323b872dd116101095780636352211e116100ee5780636352211e146101de57806370a08231146101f1578063715018a61461021257600080fd5b806323b872dd146101b857806342842e0e146101cb57600080fd5b806301ffc9a71461013b57806306fdde0314610163578063081812fc14610178578063095ea7b3146101a3575b600080fd5b61014e610149366004611619565b6102e1565b60405190151581526020015b60405180910390f35b61016b610325565b60405161015a9190611686565b61018b610186366004611699565b6103b7565b6040516001600160a01b03909116815260200161015a565b6101b66101b13660046116ce565b6103de565b005b6101b66101c63660046116f8565b610514565b6101b66101d93660046116f8565b61058b565b61018b6101ec366004611699565b6105a6565b6102046101ff366004611734565b61060b565b60405190815260200161015a565b6101b66106a5565b6101b661022836600461174f565b6106b9565b6007546001600160a01b031661018b565b60085461018b906001600160a01b031681565b61016b6107fa565b6101b66102673660046117d9565b610809565b6101b661027a366004611826565b610818565b61016b61028d366004611699565b610896565b61014e6102a0366004611902565b6001600160a01b03918216600090815260056020908152604080832093909416825291909152205460ff1690565b6101b66102dc366004611734565b6109a6565b60006001600160e01b031982167f4906490600000000000000000000000000000000000000000000000000000000148061031f575061031f82610a36565b92915050565b60606000805461033490611935565b80601f016020809104026020016040519081016040528092919081815260200182805461036090611935565b80156103ad5780601f10610382576101008083540402835291602001916103ad565b820191906000526020600020905b81548152906001019060200180831161039057829003601f168201915b5050505050905090565b60006103c282610ad1565b506000908152600460205260409020546001600160a01b031690565b60006103e9826105a6565b9050806001600160a01b0316836001600160a01b0316036104775760405162461bcd60e51b815260206004820152602160248201527f4552433732313a20617070726f76616c20746f2063757272656e74206f776e6560448201527f720000000000000000000000000000000000000000000000000000000000000060648201526084015b60405180910390fd5b336001600160a01b0382161480610493575061049381336102a0565b6105055760405162461bcd60e51b815260206004820152603d60248201527f4552433732313a20617070726f76652063616c6c6572206973206e6f7420746f60448201527f6b656e206f776e6572206f7220617070726f76656420666f7220616c6c000000606482015260840161046e565b61050f8383610b35565b505050565b61051e3382610bb0565b6105805760405162461bcd60e51b815260206004820152602d60248201527f4552433732313a2063616c6c6572206973206e6f7420746f6b656e206f776e6560448201526c1c881bdc88185c1c1c9bdd9959609a1b606482015260840161046e565b61050f838383610c2e565b61050f83838360405180602001604052806000815250610818565b6000818152600260205260408120546001600160a01b03168061031f5760405162461bcd60e51b815260206004820152601860248201527f4552433732313a20696e76616c696420746f6b656e2049440000000000000000604482015260640161046e565b60006001600160a01b0382166106895760405162461bcd60e51b815260206004820152602960248201527f4552433732313a2061646472657373207a65726f206973206e6f74206120766160448201527f6c6964206f776e65720000000000000000000000000000000000000000000000606482015260840161046e565b506001600160a01b031660009081526003602052604090205490565b6106ad610e34565b6106b76000610e8e565b565b6008546040517f429b62e50000000000000000000000000000000000000000000000000000000081523360048201526001600160a01b039091169063429b62e590602401602060405180830381865afa15801561071a573d6000803e3d6000fd5b505050506040513d601f19601f8201168201806040525081019061073e919061196f565b6107b05760405162461bcd60e51b815260206004820152602160248201527f4f6e6c792061646d696e2063616e2063616c6c20746869732066756e6374696f60448201527f6e00000000000000000000000000000000000000000000000000000000000000606482015260840161046e565b6107ba3384610eed565b61050f8383838080601f01602080910402602001604051908101604052809392919081815260200183838082843760009201919091525061108592505050565b60606001805461033490611935565b61081433838361115f565b5050565b6108223383610bb0565b6108845760405162461bcd60e51b815260206004820152602d60248201527f4552433732313a2063616c6c6572206973206e6f7420746f6b656e206f776e6560448201526c1c881bdc88185c1c1c9bdd9959609a1b606482015260840161046e565b6108908484848461122d565b50505050565b60606108a182610ad1565b600082815260066020526040812080546108ba90611935565b80601f01602080910402602001604051908101604052809291908181526020018280546108e690611935565b80156109335780601f1061090857610100808354040283529160200191610933565b820191906000526020600020905b81548152906001019060200180831161091657829003601f168201915b50505050509050600061095160408051602081019091526000815290565b90508051600003610963575092915050565b81511561099557808260405160200161097d92919061198c565b60405160208183030381529060405292505050919050565b61099e846112b6565b949350505050565b6109ae610e34565b6001600160a01b038116610a2a5760405162461bcd60e51b815260206004820152602660248201527f4f776e61626c653a206e6577206f776e657220697320746865207a65726f206160448201527f6464726573730000000000000000000000000000000000000000000000000000606482015260840161046e565b610a3381610e8e565b50565b60006001600160e01b031982167f80ac58cd000000000000000000000000000000000000000000000000000000001480610a9957506001600160e01b031982167f5b5e139f00000000000000000000000000000000000000000000000000000000145b8061031f57507f01ffc9a7000000000000000000000000000000000000000000000000000000006001600160e01b031983161461031f565b6000818152600260205260409020546001600160a01b0316610a335760405162461bcd60e51b815260206004820152601860248201527f4552433732313a20696e76616c696420746f6b656e2049440000000000000000604482015260640161046e565b6000818152600460205260409020805473ffffffffffffffffffffffffffffffffffffffff19166001600160a01b0384169081179091558190610b77826105a6565b6001600160a01b03167f8c5be1e5ebec7d5bd14f71427d1e84f3dd0314c0f7b2291e5b200ac8c7c3b92560405160405180910390a45050565b600080610bbc836105a6565b9050806001600160a01b0316846001600160a01b03161480610c0357506001600160a01b0380821660009081526005602090815260408083209388168352929052205460ff165b8061099e5750836001600160a01b0316610c1c846103b7565b6001600160a01b031614949350505050565b826001600160a01b0316610c41826105a6565b6001600160a01b031614610ca55760405162461bcd60e51b815260206004820152602560248201527f4552433732313a207472616e736665722066726f6d20696e636f72726563742060448201526437bbb732b960d91b606482015260840161046e565b6001600160a01b038216610d205760405162461bcd60e51b8152602060048201526024808201527f4552433732313a207472616e7366657220746f20746865207a65726f2061646460448201527f7265737300000000000000000000000000000000000000000000000000000000606482015260840161046e565b826001600160a01b0316610d33826105a6565b6001600160a01b031614610d975760405162461bcd60e51b815260206004820152602560248201527f4552433732313a207472616e736665722066726f6d20696e636f72726563742060448201526437bbb732b960d91b606482015260840161046e565b6000818152600460209081526040808320805473ffffffffffffffffffffffffffffffffffffffff199081169091556001600160a01b0387811680865260038552838620805460001901905590871680865283862080546001019055868652600290945282852080549092168417909155905184937fddf252ad1be2c89b69c2b068fc378daa952ba7f163c4a11628f55a4df523b3ef91a4505050565b6007546001600160a01b031633146106b75760405162461bcd60e51b815260206004820181905260248201527f4f776e61626c653a2063616c6c6572206973206e6f7420746865206f776e6572604482015260640161046e565b600780546001600160a01b0383811673ffffffffffffffffffffffffffffffffffffffff19831681179093556040519116919082907f8be0079c531659141344cd1fd0a4f28419497f9722a3daafe3b4186f6b6457e090600090a35050565b6001600160a01b038216610f435760405162461bcd60e51b815260206004820181905260248201527f4552433732313a206d696e7420746f20746865207a65726f2061646472657373604482015260640161046e565b6000818152600260205260409020546001600160a01b031615610fa85760405162461bcd60e51b815260206004820152601c60248201527f4552433732313a20746f6b656e20616c7265616479206d696e74656400000000604482015260640161046e565b6000818152600260205260409020546001600160a01b03161561100d5760405162461bcd60e51b815260206004820152601c60248201527f4552433732313a20746f6b656e20616c7265616479206d696e74656400000000604482015260640161046e565b6001600160a01b0382166000818152600360209081526040808320805460010190558483526002909152808220805473ffffffffffffffffffffffffffffffffffffffff19168417905551839291907fddf252ad1be2c89b69c2b068fc378daa952ba7f163c4a11628f55a4df523b3ef908290a45050565b6000828152600260205260409020546001600160a01b031661110f5760405162461bcd60e51b815260206004820152602e60248201527f45524337323155524953746f726167653a2055524920736574206f66206e6f6e60448201527f6578697374656e7420746f6b656e000000000000000000000000000000000000606482015260840161046e565b60008281526006602052604090206111278282611a09565b506040518281527ff8e1a15aba9398e019f0b49df1a4fde98ee17ae345cb5f6b5e2c27f5033e8ce79060200160405180910390a15050565b816001600160a01b0316836001600160a01b0316036111c05760405162461bcd60e51b815260206004820152601960248201527f4552433732313a20617070726f766520746f2063616c6c657200000000000000604482015260640161046e565b6001600160a01b03838116600081815260056020908152604080832094871680845294825291829020805460ff191686151590811790915591519182527f17307eab39ab6107e8899845ad3d59bd9653f200f220920489ca2b5937696c31910160405180910390a3505050565b611238848484610c2e565b6112448484848461132a565b6108905760405162461bcd60e51b815260206004820152603260248201527f4552433732313a207472616e7366657220746f206e6f6e20455243373231526560448201527f63656976657220696d706c656d656e7465720000000000000000000000000000606482015260840161046e565b60606112c182610ad1565b60006112d860408051602081019091526000815290565b905060008151116112f85760405180602001604052806000815250611323565b8061130284611481565b60405160200161131392919061198c565b6040516020818303038152906040525b9392505050565b60006001600160a01b0384163b1561147657604051630a85bd0160e11b81526001600160a01b0385169063150b7a029061136e903390899088908890600401611ac9565b6020604051808303816000875af19250505080156113a9575060408051601f3d908101601f191682019092526113a691810190611b05565b60015b61145c573d8080156113d7576040519150601f19603f3d011682016040523d82523d6000602084013e6113dc565b606091505b5080516000036114545760405162461bcd60e51b815260206004820152603260248201527f4552433732313a207472616e7366657220746f206e6f6e20455243373231526560448201527f63656976657220696d706c656d656e7465720000000000000000000000000000606482015260840161046e565b805181602001fd5b6001600160e01b031916630a85bd0160e11b14905061099e565b506001949350505050565b6060600061148e83611521565b600101905060008167ffffffffffffffff8111156114ae576114ae611810565b6040519080825280601f01601f1916602001820160405280156114d8576020820181803683370190505b5090508181016020015b600019017f3031323334353637383961626364656600000000000000000000000000000000600a86061a8153600a85049450846114e257509392505050565b6000807a184f03e93ff9f4daa797ed6e38ed64bf6a1f010000000000000000831061156a577a184f03e93ff9f4daa797ed6e38ed64bf6a1f010000000000000000830492506040015b6d04ee2d6d415b85acef81000000008310611596576d04ee2d6d415b85acef8100000000830492506020015b662386f26fc1000083106115b457662386f26fc10000830492506010015b6305f5e10083106115cc576305f5e100830492506008015b61271083106115e057612710830492506004015b606483106115f2576064830492506002015b600a831061031f5760010192915050565b6001600160e01b031981168114610a3357600080fd5b60006020828403121561162b57600080fd5b813561132381611603565b60005b83811015611651578181015183820152602001611639565b50506000910152565b60008151808452611672816020860160208601611636565b601f01601f19169290920160200192915050565b602081526000611323602083018461165a565b6000602082840312156116ab57600080fd5b5035919050565b80356001600160a01b03811681146116c957600080fd5b919050565b600080604083850312156116e157600080fd5b6116ea836116b2565b946020939093013593505050565b60008060006060848603121561170d57600080fd5b611716846116b2565b9250611724602085016116b2565b9150604084013590509250925092565b60006020828403121561174657600080fd5b611323826116b2565b60008060006040848603121561176457600080fd5b83359250602084013567ffffffffffffffff8082111561178357600080fd5b818601915086601f83011261179757600080fd5b8135818111156117a657600080fd5b8760208285010111156117b857600080fd5b6020830194508093505050509250925092565b8015158114610a3357600080fd5b600080604083850312156117ec57600080fd5b6117f5836116b2565b91506020830135611805816117cb565b809150509250929050565b634e487b7160e01b600052604160045260246000fd5b6000806000806080858703121561183c57600080fd5b611845856116b2565b9350611853602086016116b2565b925060408501359150606085013567ffffffffffffffff8082111561187757600080fd5b818701915087601f83011261188b57600080fd5b81358181111561189d5761189d611810565b604051601f8201601f19908116603f011681019083821181831017156118c5576118c5611810565b816040528281528a60208487010111156118de57600080fd5b82602086016020830137600060208483010152809550505050505092959194509250565b6000806040838503121561191557600080fd5b61191e836116b2565b915061192c602084016116b2565b90509250929050565b600181811c9082168061194957607f821691505b60208210810361196957634e487b7160e01b600052602260045260246000fd5b50919050565b60006020828403121561198157600080fd5b8151611323816117cb565b6000835161199e818460208801611636565b8351908301906119b2818360208801611636565b01949350505050565b601f82111561050f57600081815260208120601f850160051c810160208610156119e25750805b601f850160051c820191505b81811015611a01578281556001016119ee565b505050505050565b815167ffffffffffffffff811115611a2357611a23611810565b611a3781611a318454611935565b846119bb565b602080601f831160018114611a6c5760008415611a545750858301515b600019600386901b1c1916600185901b178555611a01565b600085815260208120601f198616915b82811015611a9b57888601518255948401946001909101908401611a7c565b5085821015611ab95787850151600019600388901b60f8161c191681555b5050505050600190811b01905550565b60006001600160a01b03808716835280861660208401525083604083015260806060830152611afb608083018461165a565b9695505050505050565b600060208284031215611b1757600080fd5b81516113238161160356fea2646970667358221220e18abbb25ca679531a5b44948fa95e8f60ce791998dea28e1fac08a8b12fa39c64736f6c63430008110033",
  "linkReferences": {},
  "deployedLinkReferences": {}
}